{
  "contractName": "NFT",
  "abi": [
    {
      "inputs": [
        {
          "internalType": "string",
          "name": "name",
          "type": "string"
        },
        {
          "internalType": "string",
          "name": "symbol",
          "type": "string"
        }
      ],
      "stateMutability": "nonpayable",
      "type": "constructor"
    },
    {
      "anonymous": false,
      "inputs": [
        {
          "indexed": true,
          "internalType": "address",
          "name": "owner",
          "type": "address"
        },
        {
          "indexed": true,
          "internalType": "address",
          "name": "approved",
          "type": "address"
        },
        {
          "indexed": true,
          "internalType": "uint256",
          "name": "tokenId",
          "type": "uint256"
        }
      ],
      "name": "Approval",
      "type": "event"
    },
    {
      "anonymous": false,
      "inputs": [
        {
          "indexed": true,
          "internalType": "address",
          "name": "owner",
          "type": "address"
        },
        {
          "indexed": true,
          "internalType": "address",
          "name": "operator",
          "type": "address"
        },
        {
          "indexed": false,
          "internalType": "bool",
          "name": "approved",
          "type": "bool"
        }
      ],
      "name": "ApprovalForAll",
      "type": "event"
    },
    {
      "anonymous": false,
      "inputs": [
        {
          "indexed": true,
          "internalType": "address",
          "name": "previousOwner",
          "type": "address"
        },
        {
          "indexed": true,
          "internalType": "address",
          "name": "newOwner",
          "type": "address"
        }
      ],
      "name": "OwnershipTransferred",
      "type": "event"
    },
    {
      "anonymous": false,
      "inputs": [
        {
          "indexed": true,
          "internalType": "address",
          "name": "from",
          "type": "address"
        },
        {
          "indexed": true,
          "internalType": "address",
          "name": "to",
          "type": "address"
        },
        {
          "indexed": true,
          "internalType": "uint256",
          "name": "tokenId",
          "type": "uint256"
        }
      ],
      "name": "Transfer",
      "type": "event"
    },
    {
      "inputs": [
        {
          "internalType": "address",
          "name": "to",
          "type": "address"
        },
        {
          "internalType": "uint256",
          "name": "tokenId",
          "type": "uint256"
        }
      ],
      "name": "approve",
      "outputs": [],
      "stateMutability": "nonpayable",
      "type": "function"
    },
    {
      "inputs": [
        {
          "internalType": "address",
          "name": "owner",
          "type": "address"
        }
      ],
      "name": "balanceOf",
      "outputs": [
        {
          "internalType": "uint256",
          "name": "",
          "type": "uint256"
        }
      ],
      "stateMutability": "view",
      "type": "function",
      "constant": true
    },
    {
      "inputs": [
        {
          "internalType": "uint256",
          "name": "tokenId",
          "type": "uint256"
        }
      ],
      "name": "getApproved",
      "outputs": [
        {
          "internalType": "address",
          "name": "",
          "type": "address"
        }
      ],
      "stateMutability": "view",
      "type": "function",
      "constant": true
    },
    {
      "inputs": [
        {
          "internalType": "address",
          "name": "owner",
          "type": "address"
        },
        {
          "internalType": "address",
          "name": "operator",
          "type": "address"
        }
      ],
      "name": "isApprovedForAll",
      "outputs": [
        {
          "internalType": "bool",
          "name": "",
          "type": "bool"
        }
      ],
      "stateMutability": "view",
      "type": "function",
      "constant": true
    },
    {
      "inputs": [],
      "name": "name",
      "outputs": [
        {
          "internalType": "string",
          "name": "",
          "type": "string"
        }
      ],
      "stateMutability": "view",
      "type": "function",
      "constant": true
    },
    {
      "inputs": [],
      "name": "owner",
      "outputs": [
        {
          "internalType": "address",
          "name": "",
          "type": "address"
        }
      ],
      "stateMutability": "view",
      "type": "function",
      "constant": true
    },
    {
      "inputs": [
        {
          "internalType": "uint256",
          "name": "tokenId",
          "type": "uint256"
        }
      ],
      "name": "ownerOf",
      "outputs": [
        {
          "internalType": "address",
          "name": "",
          "type": "address"
        }
      ],
      "stateMutability": "view",
      "type": "function",
      "constant": true
    },
    {
      "inputs": [],
      "name": "renounceOwnership",
      "outputs": [],
      "stateMutability": "nonpayable",
      "type": "function"
    },
    {
      "inputs": [
        {
          "internalType": "address",
          "name": "from",
          "type": "address"
        },
        {
          "internalType": "address",
          "name": "to",
          "type": "address"
        },
        {
          "internalType": "uint256",
          "name": "tokenId",
          "type": "uint256"
        }
      ],
      "name": "safeTransferFrom",
      "outputs": [],
      "stateMutability": "nonpayable",
      "type": "function"
    },
    {
      "inputs": [
        {
          "internalType": "address",
          "name": "from",
          "type": "address"
        },
        {
          "internalType": "address",
          "name": "to",
          "type": "address"
        },
        {
          "internalType": "uint256",
          "name": "tokenId",
          "type": "uint256"
        },
        {
          "internalType": "bytes",
          "name": "_data",
          "type": "bytes"
        }
      ],
      "name": "safeTransferFrom",
      "outputs": [],
      "stateMutability": "nonpayable",
      "type": "function"
    },
    {
      "inputs": [
        {
          "internalType": "address",
          "name": "operator",
          "type": "address"
        },
        {
          "internalType": "bool",
          "name": "approved",
          "type": "bool"
        }
      ],
      "name": "setApprovalForAll",
      "outputs": [],
      "stateMutability": "nonpayable",
      "type": "function"
    },
    {
      "inputs": [
        {
          "internalType": "bytes4",
          "name": "interfaceId",
          "type": "bytes4"
        }
      ],
      "name": "supportsInterface",
      "outputs": [
        {
          "internalType": "bool",
          "name": "",
          "type": "bool"
        }
      ],
      "stateMutability": "view",
      "type": "function",
      "constant": true
    },
    {
      "inputs": [],
      "name": "symbol",
      "outputs": [
        {
          "internalType": "string",
          "name": "",
          "type": "string"
        }
      ],
      "stateMutability": "view",
      "type": "function",
      "constant": true
    },
    {
      "inputs": [
        {
          "internalType": "uint256",
          "name": "index",
          "type": "uint256"
        }
      ],
      "name": "tokenByIndex",
      "outputs": [
        {
          "internalType": "uint256",
          "name": "",
          "type": "uint256"
        }
      ],
      "stateMutability": "view",
      "type": "function",
      "constant": true
    },
    {
      "inputs": [
        {
          "internalType": "address",
          "name": "owner",
          "type": "address"
        },
        {
          "internalType": "uint256",
          "name": "index",
          "type": "uint256"
        }
      ],
      "name": "tokenOfOwnerByIndex",
      "outputs": [
        {
          "internalType": "uint256",
          "name": "",
          "type": "uint256"
        }
      ],
      "stateMutability": "view",
      "type": "function",
      "constant": true
    },
    {
      "inputs": [
        {
          "internalType": "uint256",
          "name": "tokenId",
          "type": "uint256"
        }
      ],
      "name": "tokenURI",
      "outputs": [
        {
          "internalType": "string",
          "name": "",
          "type": "string"
        }
      ],
      "stateMutability": "view",
      "type": "function",
      "constant": true
    },
    {
      "inputs": [],
      "name": "totalSupply",
      "outputs": [
        {
          "internalType": "uint256",
          "name": "",
          "type": "uint256"
        }
      ],
      "stateMutability": "view",
      "type": "function",
      "constant": true
    },
    {
      "inputs": [
        {
          "internalType": "address",
          "name": "from",
          "type": "address"
        },
        {
          "internalType": "address",
          "name": "to",
          "type": "address"
        },
        {
          "internalType": "uint256",
          "name": "tokenId",
          "type": "uint256"
        }
      ],
      "name": "transferFrom",
      "outputs": [],
      "stateMutability": "nonpayable",
      "type": "function"
    },
    {
      "inputs": [
        {
          "internalType": "address",
          "name": "newOwner",
          "type": "address"
        }
      ],
      "name": "transferOwnership",
      "outputs": [],
      "stateMutability": "nonpayable",
      "type": "function"
    },
    {
      "inputs": [
        {
          "internalType": "uint256",
          "name": "tokenId",
          "type": "uint256"
        },
        {
          "internalType": "uint256",
          "name": "amount",
          "type": "uint256"
        }
      ],
      "name": "giveExperience",
      "outputs": [
        {
          "internalType": "uint256",
          "name": "",
          "type": "uint256"
        }
      ],
      "stateMutability": "nonpayable",
      "type": "function"
    },
    {
      "inputs": [
        {
          "internalType": "uint256",
          "name": "levelAmount",
          "type": "uint256"
        }
      ],
      "name": "addLevels",
      "outputs": [],
      "stateMutability": "nonpayable",
      "type": "function"
    },
    {
      "inputs": [
        {
          "internalType": "uint256",
          "name": "tokenId",
          "type": "uint256"
        }
      ],
      "name": "addStatPoint",
      "outputs": [
        {
          "internalType": "uint256",
          "name": "",
          "type": "uint256"
        }
      ],
      "stateMutability": "nonpayable",
      "type": "function"
    },
    {
      "inputs": [
        {
          "internalType": "uint256",
          "name": "levelIndex",
          "type": "uint256"
        }
      ],
      "name": "returnLevel",
      "outputs": [
        {
          "internalType": "uint256",
          "name": "",
          "type": "uint256"
        }
      ],
      "stateMutability": "view",
      "type": "function",
      "constant": true
    },
    {
      "inputs": [
        {
          "internalType": "uint256",
          "name": "tokenId",
          "type": "uint256"
        }
      ],
      "name": "levelUp",
      "outputs": [],
      "stateMutability": "nonpayable",
      "type": "function"
    },
    {
      "inputs": [
        {
          "internalType": "uint256",
          "name": "tokenId",
          "type": "uint256"
        }
      ],
      "name": "experienceOf",
      "outputs": [
        {
          "internalType": "uint256",
          "name": "",
          "type": "uint256"
        }
      ],
      "stateMutability": "view",
      "type": "function",
      "constant": true
    },
    {
      "inputs": [
        {
          "internalType": "uint256",
          "name": "tokenId",
          "type": "uint256"
        }
      ],
      "name": "levelOf",
      "outputs": [
        {
          "internalType": "uint256",
          "name": "",
          "type": "uint256"
        }
      ],
      "stateMutability": "view",
      "type": "function",
      "constant": true
    },
    {
      "inputs": [
        {
          "internalType": "uint256",
          "name": "nextLevelIndex",
          "type": "uint256"
        }
      ],
      "name": "requiredExpForNextLevel",
      "outputs": [
        {
          "internalType": "uint256",
          "name": "",
          "type": "uint256"
        }
      ],
      "stateMutability": "view",
      "type": "function",
      "constant": true
    },
    {
      "inputs": [],
      "name": "lastStaminaReplenishedTime",
      "outputs": [
        {
          "internalType": "uint256",
          "name": "",
          "type": "uint256"
        }
      ],
      "stateMutability": "view",
      "type": "function",
      "constant": true
    },
    {
      "inputs": [
        {
          "internalType": "uint256",
          "name": "tokenId",
          "type": "uint256"
        }
      ],
      "name": "getDwarfDetails",
      "outputs": [
        {
          "components": [
            {
              "internalType": "uint256",
              "name": "mining",
              "type": "uint256"
            },
            {
              "internalType": "uint256",
              "name": "luck",
              "type": "uint256"
            },
            {
              "internalType": "uint256",
              "name": "stamina",
              "type": "uint256"
            },
            {
              "internalType": "uint256",
              "name": "mineCooldown",
              "type": "uint256"
            },
            {
              "internalType": "uint256",
              "name": "lastMine",
              "type": "uint256"
            },
            {
              "internalType": "uint256",
              "name": "level",
              "type": "uint256"
            },
            {
              "internalType": "uint256",
              "name": "experience",
              "type": "uint256"
            },
            {
              "internalType": "uint256",
              "name": "nft_type",
              "type": "uint256"
            }
          ],
          "internalType": "struct NFT.Dwarf",
          "name": "",
          "type": "tuple"
        }
      ],
      "stateMutability": "view",
      "type": "function",
      "constant": true
    },
    {
      "inputs": [
        {
          "internalType": "uint256",
          "name": "tokenId",
          "type": "uint256"
        }
      ],
      "name": "getItemDetails",
      "outputs": [
        {
          "components": [
            {
              "internalType": "uint256",
              "name": "miningBonus",
              "type": "uint256"
            },
            {
              "internalType": "uint256",
              "name": "luckBonus",
              "type": "uint256"
            },
            {
              "internalType": "uint256",
              "name": "staminaBonus",
              "type": "uint256"
            },
            {
              "internalType": "uint256",
              "name": "mineCooldownBonus",
              "type": "uint256"
            },
            {
              "internalType": "uint256",
              "name": "durability",
              "type": "uint256"
            },
            {
              "internalType": "uint256",
              "name": "nft_type",
              "type": "uint256"
            }
          ],
          "internalType": "struct NFT.Item",
          "name": "",
          "type": "tuple"
        }
      ],
      "stateMutability": "view",
      "type": "function",
      "constant": true
    },
    {
      "inputs": [],
      "name": "maxSupply_t",
      "outputs": [
        {
          "internalType": "uint256",
          "name": "",
          "type": "uint256"
        }
      ],
      "stateMutability": "view",
      "type": "function",
      "constant": true
    },
    {
      "inputs": [
        {
          "internalType": "address",
          "name": "_rewardAdress",
          "type": "address"
        }
      ],
      "name": "setRewardAdress",
      "outputs": [],
      "stateMutability": "nonpayable",
      "type": "function"
    },
    {
      "inputs": [
        {
          "internalType": "uint256",
          "name": "miningBonus",
          "type": "uint256"
        },
        {
          "internalType": "uint256",
          "name": "luckBonus",
          "type": "uint256"
        },
        {
          "internalType": "uint256",
          "name": "staminaBonus",
          "type": "uint256"
        },
        {
          "internalType": "uint256",
          "name": "mineCooldownBonus",
          "type": "uint256"
        }
      ],
      "name": "mintItem",
      "outputs": [],
      "stateMutability": "nonpayable",
      "type": "function"
    },
    {
      "inputs": [
        {
          "internalType": "uint256",
          "name": "mining",
          "type": "uint256"
        },
        {
          "internalType": "uint256",
          "name": "luck",
          "type": "uint256"
        },
        {
          "internalType": "uint256",
          "name": "stamina",
          "type": "uint256"
        },
        {
          "internalType": "uint256",
          "name": "mineCooldown",
          "type": "uint256"
        }
      ],
      "name": "mintDwarf",
      "outputs": [],
      "stateMutability": "nonpayable",
      "type": "function"
    },
    {
      "inputs": [
        {
          "internalType": "uint256",
          "name": "id",
          "type": "uint256"
        }
      ],
      "name": "getTypeOfNft",
      "outputs": [
        {
          "internalType": "uint256",
          "name": "",
          "type": "uint256"
        }
      ],
      "stateMutability": "view",
      "type": "function",
      "constant": true
    },
    {
      "inputs": [],
      "name": "totalSupply_t",
      "outputs": [
        {
          "internalType": "uint256",
          "name": "",
          "type": "uint256"
        }
      ],
      "stateMutability": "view",
      "type": "function",
      "constant": true
    },
    {
      "inputs": [
        {
          "internalType": "uint256",
          "name": "tokenId",
          "type": "uint256"
        }
      ],
      "name": "mine",
      "outputs": [
        {
          "internalType": "string",
          "name": "",
          "type": "string"
        }
      ],
      "stateMutability": "nonpayable",
      "type": "function"
    },
    {
      "inputs": [],
      "name": "getAllTokens",
      "outputs": [
        {
          "internalType": "uint256[]",
          "name": "",
          "type": "uint256[]"
        }
      ],
      "stateMutability": "view",
      "type": "function",
      "constant": true
    },
    {
      "inputs": [
        {
          "internalType": "address",
          "name": "user",
          "type": "address"
        }
      ],
      "name": "getAllNftOfUser",
      "outputs": [
        {
          "internalType": "uint256[]",
          "name": "",
          "type": "uint256[]"
        }
      ],
      "stateMutability": "view",
      "type": "function",
      "constant": true
    }
  ],
  "bytecode": "0x60806040526000600b556000601055601e6013556064601455601e601555600060165560006017553480156200003457600080fd5b5060405162004b8738038062004b8783398181016040528101906200005a919062000488565b81818160009080519060200190620000749291906200023b565b5080600190805190602001906200008d9291906200023b565b505050620000b0620000a4620000d860201b60201c565b620000e060201b60201c565b6103e8600b8190555042601281905550620000d0620001a660201b60201c565b505062000656565b600033905090565b6000600a60009054906101000a900473ffffffffffffffffffffffffffffffffffffffff16905081600a60006101000a81548173ffffffffffffffffffffffffffffffffffffffff021916908373ffffffffffffffffffffffffffffffffffffffff1602179055508173ffffffffffffffffffffffffffffffffffffffff168173ffffffffffffffffffffffffffffffffffffffff167f8be0079c531659141344cd1fd0a4f28419497f9722a3daafe3b4186f6b6457e060405160405180910390a35050565b60006017549050600042601354601254620001c2919062000546565b10156200020657600090505b81811015620001fe57620001e8816200020a60201b60201c565b8080620001f590620005a3565b915050620001ce565b426012819055505b5050565b600d600082815260200190815260200160002060020160008154809291906200023390620005a3565b919050555050565b828054620002499062000620565b90600052602060002090601f0160209004810192826200026d5760008555620002b9565b82601f106200028857805160ff1916838001178555620002b9565b82800160010185558215620002b9579182015b82811115620002b85782518255916020019190600101906200029b565b5b509050620002c89190620002cc565b5090565b5b80821115620002e7576000816000905550600101620002cd565b5090565b6000604051905090565b600080fd5b600080fd5b600080fd5b600080fd5b6000601f19601f8301169050919050565b7f4e487b7100000000000000000000000000000000000000000000000000000000600052604160045260246000fd5b620003548262000309565b810181811067ffffffffffffffff821117156200037657620003756200031a565b5b80604052505050565b60006200038b620002eb565b905062000399828262000349565b919050565b600067ffffffffffffffff821115620003bc57620003bb6200031a565b5b620003c78262000309565b9050602081019050919050565b60005b83811015620003f4578082015181840152602081019050620003d7565b8381111562000404576000848401525b50505050565b6000620004216200041b846200039e565b6200037f565b90508281526020810184848401111562000440576200043f62000304565b5b6200044d848285620003d4565b509392505050565b600082601f8301126200046d576200046c620002ff565b5b81516200047f8482602086016200040a565b91505092915050565b60008060408385031215620004a257620004a1620002f5565b5b600083015167ffffffffffffffff811115620004c357620004c2620002fa565b5b620004d18582860162000455565b925050602083015167ffffffffffffffff811115620004f557620004f4620002fa565b5b620005038582860162000455565b9150509250929050565b6000819050919050565b7f4e487b7100000000000000000000000000000000000000000000000000000000600052601160045260246000fd5b600062000553826200050d565b915062000560836200050d565b9250827fffffffffffffffffffffffffffffffffffffffffffffffffffffffffffffffff0382111562000598576200059762000517565b5b828201905092915050565b6000620005b0826200050d565b91507fffffffffffffffffffffffffffffffffffffffffffffffffffffffffffffffff821415620005e657620005e562000517565b5b600182019050919050565b7f4e487b7100000000000000000000000000000000000000000000000000000000600052602260045260246000fd5b600060028204905060018216806200063957607f821691505b6020821081141562000650576200064f620005f1565b5b50919050565b61452180620006666000396000f3fe608060405234801561001057600080fd5b506004361061023d5760003560e01c806358069deb1161013b57806395d89b41116100b8578063dca0c35b1161007c578063dca0c35b1461074c578063e985e9c514610768578063f2fde38b14610798578063f572f69a146107b4578063fd1af49c146107e45761023d565b806395d89b41146106a8578063a22cb465146106c6578063b88d4fde146106e2578063c87b56dd146106fe578063d6273e3f1461072e5761023d565b806370a08231116100ff57806370a08231146105f0578063715018a61461062057806373004ca01461062a5780638cdc2aa61461065a5780638da5cb5b1461068a5761023d565b806358069deb1461050057806361e0e03d1461053057806362ca032c146105605780636352211e146105905780636d5e3032146105c05761023d565b806323b872dd116101c957806342842e0e1161018d57806342842e0e146104385780634d474898146104545780634f6ccce71461048457806352ff0391146104b457806355675534146104d05761023d565b806323b872dd146103805780632483b0351461039c5780632869935b146103cc5780632a5c792a146103ea5780632f745c59146104085761023d565b80630894eb74116102105780630894eb74146102dc578063095ea7b31461030c5780630ce90ec21461032857806312f85e9b1461034457806318160ddd146103625761023d565b806301ffc9a714610242578063055a29b51461027257806306fdde031461028e578063081812fc146102ac575b600080fd5b61025c60048036038101906102579190612c62565b610800565b6040516102699190612caa565b60405180910390f35b61028c60048036038101906102879190612cfb565b61087a565b005b61029661096c565b6040516102a39190612dfb565b60405180910390f35b6102c660048036038101906102c19190612e1d565b6109fe565b6040516102d39190612e8b565b60405180910390f35b6102f660048036038101906102f19190612e1d565b610a83565b6040516103039190612eb5565b60405180910390f35b61032660048036038101906103219190612efc565b610aa0565b005b610342600480360381019061033d9190612e1d565b610bb8565b005b61034c610c0d565b6040516103599190612eb5565b60405180910390f35b61036a610c17565b6040516103779190612eb5565b60405180910390f35b61039a60048036038101906103959190612f3c565b610c24565b005b6103b660048036038101906103b19190612e1d565b610c84565b6040516103c39190612eb5565b60405180910390f35b6103d4610d18565b6040516103e19190612eb5565b60405180910390f35b6103f2610d22565b6040516103ff919061304d565b60405180910390f35b610422600480360381019061041d9190612efc565b610e1b565b60405161042f9190612eb5565b60405180910390f35b610452600480360381019061044d9190612f3c565b610ec0565b005b61046e60048036038101906104699190612e1d565b610ee0565b60405161047b9190612dfb565b60405180910390f35b61049e60048036038101906104999190612e1d565b611149565b6040516104ab9190612eb5565b60405180910390f35b6104ce60048036038101906104c9919061306f565b6111ba565b005b6104ea60048036038101906104e59190612e1d565b6111fe565b6040516104f79190612eb5565b60405180910390f35b61051a60048036038101906105159190612e1d565b61121b565b6040516105279190612eb5565b60405180910390f35b61054a60048036038101906105459190612e1d565b611238565b604051610557919061313e565b60405180910390f35b61057a6004803603810190610575919061315a565b6112b6565b6040516105879190612eb5565b60405180910390f35b6105aa60048036038101906105a59190612e1d565b611336565b6040516105b79190612e8b565b60405180910390f35b6105da60048036038101906105d59190612e1d565b6113e8565b6040516105e79190612eb5565b60405180910390f35b61060a6004803603810190610605919061306f565b611408565b6040516106179190612eb5565b60405180910390f35b6106286114c0565b005b610644600480360381019061063f9190612e1d565b611548565b6040516106519190613215565b60405180910390f35b610674600480360381019061066f919061306f565b6115b1565b604051610681919061304d565b60405180910390f35b6106926116b3565b60405161069f9190612e8b565b60405180910390f35b6106b06116dd565b6040516106bd9190612dfb565b60405180910390f35b6106e060048036038101906106db919061325c565b61176f565b005b6106fc60048036038101906106f791906133d1565b6118f0565b005b61071860048036038101906107139190612e1d565b611952565b6040516107259190612dfb565b60405180910390f35b6107366119f9565b6040516107439190612eb5565b60405180910390f35b61076660048036038101906107619190612cfb565b611a03565b005b610782600480360381019061077d9190613454565b611ad3565b60405161078f9190612caa565b60405180910390f35b6107b260048036038101906107ad919061306f565b611b67565b005b6107ce60048036038101906107c99190612e1d565b611c5f565b6040516107db9190612eb5565b60405180910390f35b6107fe60048036038101906107f99190612e1d565b611c7f565b005b60007f780e9d63000000000000000000000000000000000000000000000000000000007bffffffffffffffffffffffffffffffffffffffffffffffffffffffff1916827bffffffffffffffffffffffffffffffffffffffffffffffffffffffff19161480610873575061087282611e0a565b5b9050919050565b60405180610100016040528085815260200184815260200183815260200182815260200142815260200160008152602001600081526020016001815250600d60006017548152602001908152602001600020600082015181600001556020820151816001015560408201518160020155606082015181600301556080820151816004015560a0820151816005015560c0820151816006015560e082015181600701559050506001600f600060175481526020019081526020016000208190555061094633601754611eec565b60176000815480929190610959906134c3565b9190505550610966611f0a565b50505050565b60606000805461097b9061353b565b80601f01602080910402602001604051908101604052809291908181526020018280546109a79061353b565b80156109f45780601f106109c9576101008083540402835291602001916109f4565b820191906000526020600020905b8154815290600101906020018083116109d757829003601f168201915b5050505050905090565b6000610a0982611f5f565b610a48576040517f08c379a0000000000000000000000000000000000000000000000000000000008152600401610a3f906135df565b60405180910390fd5b6004600083815260200190815260200160002060009054906101000a900473ffffffffffffffffffffffffffffffffffffffff169050919050565b6000600e6000838152602001908152602001600020549050919050565b6000610aab82611336565b90508073ffffffffffffffffffffffffffffffffffffffff168373ffffffffffffffffffffffffffffffffffffffff161415610b1c576040517f08c379a0000000000000000000000000000000000000000000000000000000008152600401610b1390613671565b60405180910390fd5b8073ffffffffffffffffffffffffffffffffffffffff16610b3b611fcb565b73ffffffffffffffffffffffffffffffffffffffff161480610b6a5750610b6981610b64611fcb565b611ad3565b5b610ba9576040517f08c379a0000000000000000000000000000000000000000000000000000000008152600401610ba090613703565b60405180910390fd5b610bb38383611fd3565b505050565b600d60008281526020019081526020016000206005016000815480929190610bdf906134c3565b91905055506000600d600083815260200190815260200160002060060181905550610c0981610c84565b5050565b6000601254905090565b6000600880549050905090565b610c35610c2f611fcb565b8261208c565b610c74576040517f08c379a0000000000000000000000000000000000000000000000000000000008152600401610c6b90613795565b60405180910390fd5b610c7f83838361216a565b505050565b6000610c90600a6123c6565b506000610c9d600a6123c6565b90506005811115610d0f57610cda610cb560036123c6565b600d60008681526020019081526020016000206000015461242290919063ffffffff16565b50610d0d610ce860026123c6565b600d60008681526020019081526020016000206001015461242290919063ffffffff16565b505b80915050919050565b6000601754905090565b60606000601754905060008167ffffffffffffffff811115610d4757610d466132a6565b5b604051908082528060200260200182016040528015610d755781602001602082028036833780820191505090505b50905060008060009050600091505b83821015610dcd5781838281518110610da057610d9f6137b5565b5b6020026020010181815250508080610db7906134c3565b9150508180610dc5906134c3565b925050610d84565b6000835111610e11576040517f08c379a0000000000000000000000000000000000000000000000000000000008152600401610e0890613830565b60405180910390fd5b8294505050505090565b6000610e2683611408565b8210610e67576040517f08c379a0000000000000000000000000000000000000000000000000000000008152600401610e5e906138c2565b60405180910390fd5b600660008473ffffffffffffffffffffffffffffffffffffffff1673ffffffffffffffffffffffffffffffffffffffff168152602001908152602001600020600083815260200190815260200160002054905092915050565b610edb838383604051806020016040528060008152506118f0565b505050565b6060610eea611f0a565b6000601160009054906101000a900473ffffffffffffffffffffffffffffffffffffffff169050600066038d7ea4c68000905060003390508273ffffffffffffffffffffffffffffffffffffffff166321670f2282846040518363ffffffff1660e01b8152600401610f5d9291906138e2565b602060405180830381600087803b158015610f7757600080fd5b505af1158015610f8b573d6000803e3d6000fd5b505050506040513d601f19601f82011682018060405250810190610faf9190613920565b506000600d600087815260200190815260200160002090503373ffffffffffffffffffffffffffffffffffffffff16610fe787611336565b73ffffffffffffffffffffffffffffffffffffffff161461103d576040517f08c379a000000000000000000000000000000000000000000000000000000000815260040161103490613999565b60405180910390fd5b428160030154826004015461105291906139b9565b10611092576040517f08c379a000000000000000000000000000000000000000000000000000000000815260040161108990613a5b565b60405180910390fd5b60008160020154116110d9576040517f08c379a00000000000000000000000000000000000000000000000000000000081526004016110d090613ac7565b60405180910390fd5b4281600401819055508060020160008154809291906110f790613ae7565b91905055506111078660c86112b6565b506040518060400160405280600781526020017f5375636365737300000000000000000000000000000000000000000000000000815250945050505050919050565b6000611153610c17565b8210611194576040517f08c379a000000000000000000000000000000000000000000000000000000000815260040161118b90613b83565b60405180910390fd5b600882815481106111a8576111a76137b5565b5b90600052602060002001549050919050565b80601160006101000a81548173ffffffffffffffffffffffffffffffffffffffff021916908373ffffffffffffffffffffffffffffffffffffffff16021790555050565b6000600e6000838152602001908152602001600020549050919050565b6000600f6000838152602001908152602001600020549050919050565b611240612b7b565b600d600083815260200190815260200160002060405180610100016040529081600082015481526020016001820154815260200160028201548152602001600382015481526020016004820154815260200160058201548152602001600682015481526020016007820154815250509050919050565b600081600d600085815260200190815260200160002060060160008282546112de91906139b9565b925050819055506000611306600d6000868152602001908152602001600020600501546111fe565b905080600d6000868152602001908152602001600020600601541061132f5761132e84610bb8565b5b5092915050565b6000806002600084815260200190815260200160002060009054906101000a900473ffffffffffffffffffffffffffffffffffffffff169050600073ffffffffffffffffffffffffffffffffffffffff168173ffffffffffffffffffffffffffffffffffffffff1614156113df576040517f08c379a00000000000000000000000000000000000000000000000000000000081526004016113d690613c15565b60405180910390fd5b80915050919050565b6000600d6000838152602001908152602001600020600501549050919050565b60008073ffffffffffffffffffffffffffffffffffffffff168273ffffffffffffffffffffffffffffffffffffffff161415611479576040517f08c379a000000000000000000000000000000000000000000000000000000000815260040161147090613ca7565b60405180910390fd5b600360008373ffffffffffffffffffffffffffffffffffffffff1673ffffffffffffffffffffffffffffffffffffffff168152602001908152602001600020549050919050565b6114c8611fcb565b73ffffffffffffffffffffffffffffffffffffffff166114e66116b3565b73ffffffffffffffffffffffffffffffffffffffff161461153c576040517f08c379a000000000000000000000000000000000000000000000000000000000815260040161153390613d13565b60405180910390fd5b6115466000612438565b565b611550612bc0565b600c60008381526020019081526020016000206040518060c001604052908160008201548152602001600182015481526020016002820154815260200160038201548152602001600482015481526020016005820154815250509050919050565b606060006115be83611408565b905060008167ffffffffffffffff8111156115dc576115db6132a6565b5b60405190808252806020026020018201604052801561160a5781602001602082028036833780820191505090505b5090506000601754905060008060009050600091505b828210156116a6578673ffffffffffffffffffffffffffffffffffffffff1661164883611336565b73ffffffffffffffffffffffffffffffffffffffff1614156116935781848281518110611678576116776137b5565b5b602002602001018181525050808061168f906134c3565b9150505b818061169e906134c3565b925050611620565b8395505050505050919050565b6000600a60009054906101000a900473ffffffffffffffffffffffffffffffffffffffff16905090565b6060600180546116ec9061353b565b80601f01602080910402602001604051908101604052809291908181526020018280546117189061353b565b80156117655780601f1061173a57610100808354040283529160200191611765565b820191906000526020600020905b81548152906001019060200180831161174857829003601f168201915b5050505050905090565b611777611fcb565b73ffffffffffffffffffffffffffffffffffffffff168273ffffffffffffffffffffffffffffffffffffffff1614156117e5576040517f08c379a00000000000000000000000000000000000000000000000000000000081526004016117dc90613d7f565b60405180910390fd5b80600560006117f2611fcb565b73ffffffffffffffffffffffffffffffffffffffff1673ffffffffffffffffffffffffffffffffffffffff16815260200190815260200160002060008473ffffffffffffffffffffffffffffffffffffffff1673ffffffffffffffffffffffffffffffffffffffff16815260200190815260200160002060006101000a81548160ff0219169083151502179055508173ffffffffffffffffffffffffffffffffffffffff1661189f611fcb565b73ffffffffffffffffffffffffffffffffffffffff167f17307eab39ab6107e8899845ad3d59bd9653f200f220920489ca2b5937696c31836040516118e49190612caa565b60405180910390a35050565b6119016118fb611fcb565b8361208c565b611940576040517f08c379a000000000000000000000000000000000000000000000000000000000815260040161193790613795565b60405180910390fd5b61194c848484846124fe565b50505050565b606061195d82611f5f565b61199c576040517f08c379a000000000000000000000000000000000000000000000000000000000815260040161199390613e11565b60405180910390fd5b60006119a661255a565b905060008151116119c657604051806020016040528060008152506119f1565b806119d084612571565b6040516020016119e1929190613e6d565b6040516020818303038152906040525b915050919050565b6000600b54905090565b6040518060c00160405280858152602001848152602001838152602001828152602001601481526020016002815250600c60006017548152602001908152602001600020600082015181600001556020820151816001015560408201518160020155606082015181600301556080820151816004015560a082015181600501559050506002600f6000601754815260200190815260200160002081905550611aad33601754611eec565b60176000815480929190611ac0906134c3565b9190505550611acd611f0a565b50505050565b6000600560008473ffffffffffffffffffffffffffffffffffffffff1673ffffffffffffffffffffffffffffffffffffffff16815260200190815260200160002060008373ffffffffffffffffffffffffffffffffffffffff1673ffffffffffffffffffffffffffffffffffffffff16815260200190815260200160002060009054906101000a900460ff16905092915050565b611b6f611fcb565b73ffffffffffffffffffffffffffffffffffffffff16611b8d6116b3565b73ffffffffffffffffffffffffffffffffffffffff1614611be3576040517f08c379a0000000000000000000000000000000000000000000000000000000008152600401611bda90613d13565b60405180910390fd5b600073ffffffffffffffffffffffffffffffffffffffff168173ffffffffffffffffffffffffffffffffffffffff161415611c53576040517f08c379a0000000000000000000000000000000000000000000000000000000008152600401611c4a90613f03565b60405180910390fd5b611c5c81612438565b50565b6000600d6000838152602001908152602001600020600601549050919050565b611c87611fcb565b73ffffffffffffffffffffffffffffffffffffffff16611ca56116b3565b73ffffffffffffffffffffffffffffffffffffffff1614611cfb576040517f08c379a0000000000000000000000000000000000000000000000000000000008152600401611cf290613d13565b60405180910390fd5b60005b81811015611dec5760006015541115611d2e57611d2760016015546126d290919063ffffffff16565b6015819055505b611d5e6015546064601454611d439190613f52565b611d4d9190613f83565b60145461242290919063ffffffff16565b60148190555060006014549050600060649050808160018385611d8191906139b9565b611d8b9190613fdd565b611d959190613f52565b611d9f9190613f83565b601481905550601454600e60008581526020019081526020016000208190555060106000815480929190611dd2906134c3565b919050555050508080611de4906134c3565b915050611cfe565b600e6000828152602001908152602001600020546014819055505050565b60007f80ac58cd000000000000000000000000000000000000000000000000000000007bffffffffffffffffffffffffffffffffffffffffffffffffffffffff1916827bffffffffffffffffffffffffffffffffffffffffffffffffffffffff19161480611ed557507f5b5e139f000000000000000000000000000000000000000000000000000000007bffffffffffffffffffffffffffffffffffffffffffffffffffffffff1916827bffffffffffffffffffffffffffffffffffffffffffffffffffffffff1916145b80611ee55750611ee4826126e8565b5b9050919050565b611f06828260405180602001604052806000815250612752565b5050565b60006017549050600042601354601254611f2491906139b9565b1015611f5b57600090505b81811015611f5357611f40816127ad565b8080611f4b906134c3565b915050611f2f565b426012819055505b5050565b60008073ffffffffffffffffffffffffffffffffffffffff166002600084815260200190815260200160002060009054906101000a900473ffffffffffffffffffffffffffffffffffffffff1673ffffffffffffffffffffffffffffffffffffffff1614159050919050565b600033905090565b816004600083815260200190815260200160002060006101000a81548173ffffffffffffffffffffffffffffffffffffffff021916908373ffffffffffffffffffffffffffffffffffffffff160217905550808273ffffffffffffffffffffffffffffffffffffffff1661204683611336565b73ffffffffffffffffffffffffffffffffffffffff167f8c5be1e5ebec7d5bd14f71427d1e84f3dd0314c0f7b2291e5b200ac8c7c3b92560405160405180910390a45050565b600061209782611f5f565b6120d6576040517f08c379a00000000000000000000000000000000000000000000000000000000081526004016120cd90614083565b60405180910390fd5b60006120e183611336565b90508073ffffffffffffffffffffffffffffffffffffffff168473ffffffffffffffffffffffffffffffffffffffff16148061215057508373ffffffffffffffffffffffffffffffffffffffff16612138846109fe565b73ffffffffffffffffffffffffffffffffffffffff16145b8061216157506121608185611ad3565b5b91505092915050565b8273ffffffffffffffffffffffffffffffffffffffff1661218a82611336565b73ffffffffffffffffffffffffffffffffffffffff16146121e0576040517f08c379a00000000000000000000000000000000000000000000000000000000081526004016121d790614115565b60405180910390fd5b600073ffffffffffffffffffffffffffffffffffffffff168273ffffffffffffffffffffffffffffffffffffffff161415612250576040517f08c379a0000000000000000000000000000000000000000000000000000000008152600401612247906141a7565b60405180910390fd5b61225b8383836127dc565b612266600082611fd3565b6001600360008573ffffffffffffffffffffffffffffffffffffffff1673ffffffffffffffffffffffffffffffffffffffff16815260200190815260200160002060008282546122b69190613fdd565b925050819055506001600360008473ffffffffffffffffffffffffffffffffffffffff1673ffffffffffffffffffffffffffffffffffffffff168152602001908152602001600020600082825461230d91906139b9565b92505081905550816002600083815260200190815260200160002060006101000a81548173ffffffffffffffffffffffffffffffffffffffff021916908373ffffffffffffffffffffffffffffffffffffffff160217905550808273ffffffffffffffffffffffffffffffffffffffff168473ffffffffffffffffffffffffffffffffffffffff167fddf252ad1be2c89b69c2b068fc378daa952ba7f163c4a11628f55a4df523b3ef60405160405180910390a4505050565b6000601660008154809291906123db906134c3565b91905055508142336016546040516020016123f893929190614230565b6040516020818303038152906040528051906020012060001c61241b919061426d565b9050919050565b6000818361243091906139b9565b905092915050565b6000600a60009054906101000a900473ffffffffffffffffffffffffffffffffffffffff16905081600a60006101000a81548173ffffffffffffffffffffffffffffffffffffffff021916908373ffffffffffffffffffffffffffffffffffffffff1602179055508173ffffffffffffffffffffffffffffffffffffffff168173ffffffffffffffffffffffffffffffffffffffff167f8be0079c531659141344cd1fd0a4f28419497f9722a3daafe3b4186f6b6457e060405160405180910390a35050565b61250984848461216a565b61251584848484612803565b612554576040517f08c379a000000000000000000000000000000000000000000000000000000000815260040161254b90614310565b60405180910390fd5b50505050565b606060405180602001604052806000815250905090565b606060008214156125b9576040518060400160405280600181526020017f300000000000000000000000000000000000000000000000000000000000000081525090506126cd565b600082905060005b600082146125eb5780806125d4906134c3565b915050600a826125e49190613f52565b91506125c1565b60008167ffffffffffffffff811115612607576126066132a6565b5b6040519080825280601f01601f1916602001820160405280156126395781602001600182028036833780820191505090505b5090505b600085146126c6576001826126529190613fdd565b9150600a85612661919061426d565b603061266d91906139b9565b60f81b818381518110612683576126826137b5565b5b60200101907effffffffffffffffffffffffffffffffffffffffffffffffffffffffffffff1916908160001a905350600a856126bf9190613f52565b945061263d565b8093505050505b919050565b600081836126e09190613fdd565b905092915050565b60007f01ffc9a7000000000000000000000000000000000000000000000000000000007bffffffffffffffffffffffffffffffffffffffffffffffffffffffff1916827bffffffffffffffffffffffffffffffffffffffffffffffffffffffff1916149050919050565b61275c838361299a565b6127696000848484612803565b6127a8576040517f08c379a000000000000000000000000000000000000000000000000000000000815260040161279f90614310565b60405180910390fd5b505050565b600d600082815260200190815260200160002060020160008154809291906127d4906134c3565b919050555050565b6000600d6000601754815260200190815260200160002090506127fd611f0a565b50505050565b60006128248473ffffffffffffffffffffffffffffffffffffffff16612b68565b1561298d578373ffffffffffffffffffffffffffffffffffffffff1663150b7a0261284d611fcb565b8786866040518563ffffffff1660e01b815260040161286f9493929190614385565b602060405180830381600087803b15801561288957600080fd5b505af19250505080156128ba57506040513d601f19601f820116820180604052508101906128b791906143e6565b60015b61293d573d80600081146128ea576040519150601f19603f3d011682016040523d82523d6000602084013e6128ef565b606091505b50600081511415612935576040517f08c379a000000000000000000000000000000000000000000000000000000000815260040161292c90614310565b60405180910390fd5b805181602001fd5b63150b7a0260e01b7bffffffffffffffffffffffffffffffffffffffffffffffffffffffff1916817bffffffffffffffffffffffffffffffffffffffffffffffffffffffff191614915050612992565b600190505b949350505050565b600073ffffffffffffffffffffffffffffffffffffffff168273ffffffffffffffffffffffffffffffffffffffff161415612a0a576040517f08c379a0000000000000000000000000000000000000000000000000000000008152600401612a019061445f565b60405180910390fd5b612a1381611f5f565b15612a53576040517f08c379a0000000000000000000000000000000000000000000000000000000008152600401612a4a906144cb565b60405180910390fd5b612a5f600083836127dc565b6001600360008473ffffffffffffffffffffffffffffffffffffffff1673ffffffffffffffffffffffffffffffffffffffff1681526020019081526020016000206000828254612aaf91906139b9565b92505081905550816002600083815260200190815260200160002060006101000a81548173ffffffffffffffffffffffffffffffffffffffff021916908373ffffffffffffffffffffffffffffffffffffffff160217905550808273ffffffffffffffffffffffffffffffffffffffff16600073ffffffffffffffffffffffffffffffffffffffff167fddf252ad1be2c89b69c2b068fc378daa952ba7f163c4a11628f55a4df523b3ef60405160405180910390a45050565b600080823b905060008111915050919050565b60405180610100016040528060008152602001600081526020016000815260200160008152602001600081526020016000815260200160008152602001600081525090565b6040518060c001604052806000815260200160008152602001600081526020016000815260200160008152602001600081525090565b6000604051905090565b600080fd5b600080fd5b60007fffffffff0000000000000000000000000000000000000000000000000000000082169050919050565b612c3f81612c0a565b8114612c4a57600080fd5b50565b600081359050612c5c81612c36565b92915050565b600060208284031215612c7857612c77612c00565b5b6000612c8684828501612c4d565b91505092915050565b60008115159050919050565b612ca481612c8f565b82525050565b6000602082019050612cbf6000830184612c9b565b92915050565b6000819050919050565b612cd881612cc5565b8114612ce357600080fd5b50565b600081359050612cf581612ccf565b92915050565b60008060008060808587031215612d1557612d14612c00565b5b6000612d2387828801612ce6565b9450506020612d3487828801612ce6565b9350506040612d4587828801612ce6565b9250506060612d5687828801612ce6565b91505092959194509250565b600081519050919050565b600082825260208201905092915050565b60005b83811015612d9c578082015181840152602081019050612d81565b83811115612dab576000848401525b50505050565b6000601f19601f8301169050919050565b6000612dcd82612d62565b612dd78185612d6d565b9350612de7818560208601612d7e565b612df081612db1565b840191505092915050565b60006020820190508181036000830152612e158184612dc2565b905092915050565b600060208284031215612e3357612e32612c00565b5b6000612e4184828501612ce6565b91505092915050565b600073ffffffffffffffffffffffffffffffffffffffff82169050919050565b6000612e7582612e4a565b9050919050565b612e8581612e6a565b82525050565b6000602082019050612ea06000830184612e7c565b92915050565b612eaf81612cc5565b82525050565b6000602082019050612eca6000830184612ea6565b92915050565b612ed981612e6a565b8114612ee457600080fd5b50565b600081359050612ef681612ed0565b92915050565b60008060408385031215612f1357612f12612c00565b5b6000612f2185828601612ee7565b9250506020612f3285828601612ce6565b9150509250929050565b600080600060608486031215612f5557612f54612c00565b5b6000612f6386828701612ee7565b9350506020612f7486828701612ee7565b9250506040612f8586828701612ce6565b9150509250925092565b600081519050919050565b600082825260208201905092915050565b6000819050602082019050919050565b612fc481612cc5565b82525050565b6000612fd68383612fbb565b60208301905092915050565b6000602082019050919050565b6000612ffa82612f8f565b6130048185612f9a565b935061300f83612fab565b8060005b838110156130405781516130278882612fca565b975061303283612fe2565b925050600181019050613013565b5085935050505092915050565b600060208201905081810360008301526130678184612fef565b905092915050565b60006020828403121561308557613084612c00565b5b600061309384828501612ee7565b91505092915050565b610100820160008201516130b36000850182612fbb565b5060208201516130c66020850182612fbb565b5060408201516130d96040850182612fbb565b5060608201516130ec6060850182612fbb565b5060808201516130ff6080850182612fbb565b5060a082015161311260a0850182612fbb565b5060c082015161312560c0850182612fbb565b5060e082015161313860e0850182612fbb565b50505050565b600061010082019050613154600083018461309c565b92915050565b6000806040838503121561317157613170612c00565b5b600061317f85828601612ce6565b925050602061319085828601612ce6565b9150509250929050565b60c0820160008201516131b06000850182612fbb565b5060208201516131c36020850182612fbb565b5060408201516131d66040850182612fbb565b5060608201516131e96060850182612fbb565b5060808201516131fc6080850182612fbb565b5060a082015161320f60a0850182612fbb565b50505050565b600060c08201905061322a600083018461319a565b92915050565b61323981612c8f565b811461324457600080fd5b50565b60008135905061325681613230565b92915050565b6000806040838503121561327357613272612c00565b5b600061328185828601612ee7565b925050602061329285828601613247565b9150509250929050565b600080fd5b600080fd5b7f4e487b7100000000000000000000000000000000000000000000000000000000600052604160045260246000fd5b6132de82612db1565b810181811067ffffffffffffffff821117156132fd576132fc6132a6565b5b80604052505050565b6000613310612bf6565b905061331c82826132d5565b919050565b600067ffffffffffffffff82111561333c5761333b6132a6565b5b61334582612db1565b9050602081019050919050565b82818337600083830152505050565b600061337461336f84613321565b613306565b9050828152602081018484840111156133905761338f6132a1565b5b61339b848285613352565b509392505050565b600082601f8301126133b8576133b761329c565b5b81356133c8848260208601613361565b91505092915050565b600080600080608085870312156133eb576133ea612c00565b5b60006133f987828801612ee7565b945050602061340a87828801612ee7565b935050604061341b87828801612ce6565b925050606085013567ffffffffffffffff81111561343c5761343b612c05565b5b613448878288016133a3565b91505092959194509250565b6000806040838503121561346b5761346a612c00565b5b600061347985828601612ee7565b925050602061348a85828601612ee7565b9150509250929050565b7f4e487b7100000000000000000000000000000000000000000000000000000000600052601160045260246000fd5b60006134ce82612cc5565b91507fffffffffffffffffffffffffffffffffffffffffffffffffffffffffffffffff82141561350157613500613494565b5b600182019050919050565b7f4e487b7100000000000000000000000000000000000000000000000000000000600052602260045260246000fd5b6000600282049050600182168061355357607f821691505b602082108114156135675761356661350c565b5b50919050565b7f4552433732313a20617070726f76656420717565727920666f72206e6f6e657860008201527f697374656e7420746f6b656e0000000000000000000000000000000000000000602082015250565b60006135c9602c83612d6d565b91506135d48261356d565b604082019050919050565b600060208201905081810360008301526135f8816135bc565b9050919050565b7f4552433732313a20617070726f76616c20746f2063757272656e74206f776e6560008201527f7200000000000000000000000000000000000000000000000000000000000000602082015250565b600061365b602183612d6d565b9150613666826135ff565b604082019050919050565b6000602082019050818103600083015261368a8161364e565b9050919050565b7f4552433732313a20617070726f76652063616c6c6572206973206e6f74206f7760008201527f6e6572206e6f7220617070726f76656420666f7220616c6c0000000000000000602082015250565b60006136ed603883612d6d565b91506136f882613691565b604082019050919050565b6000602082019050818103600083015261371c816136e0565b9050919050565b7f4552433732313a207472616e736665722063616c6c6572206973206e6f74206f60008201527f776e6572206e6f7220617070726f766564000000000000000000000000000000602082015250565b600061377f603183612d6d565b915061378a82613723565b604082019050919050565b600060208201905081810360008301526137ae81613772565b9050919050565b7f4e487b7100000000000000000000000000000000000000000000000000000000600052603260045260246000fd5b7f6e6f20746f6b656e730000000000000000000000000000000000000000000000600082015250565b600061381a600983612d6d565b9150613825826137e4565b602082019050919050565b600060208201905081810360008301526138498161380d565b9050919050565b7f455243373231456e756d657261626c653a206f776e657220696e646578206f7560008201527f74206f6620626f756e6473000000000000000000000000000000000000000000602082015250565b60006138ac602b83612d6d565b91506138b782613850565b604082019050919050565b600060208201905081810360008301526138db8161389f565b9050919050565b60006040820190506138f76000830185612e7c565b6139046020830184612ea6565b9392505050565b60008151905061391a81613230565b92915050565b60006020828403121561393657613935612c00565b5b60006139448482850161390b565b91505092915050565b7f796f7520646f6e74206f776e20746869732070726f7065727479000000000000600082015250565b6000613983601a83612d6d565b915061398e8261394d565b602082019050919050565b600060208201905081810360008301526139b281613976565b9050919050565b60006139c482612cc5565b91506139cf83612cc5565b9250827fffffffffffffffffffffffffffffffffffffffffffffffffffffffffffffffff03821115613a0457613a03613494565b5b828201905092915050565b7f6f6e20636f6f6c646f776e000000000000000000000000000000000000000000600082015250565b6000613a45600b83612d6d565b9150613a5082613a0f565b602082019050919050565b60006020820190508181036000830152613a7481613a38565b9050919050565b7f6e6f207374616d696e6100000000000000000000000000000000000000000000600082015250565b6000613ab1600a83612d6d565b9150613abc82613a7b565b602082019050919050565b60006020820190508181036000830152613ae081613aa4565b9050919050565b6000613af282612cc5565b91506000821415613b0657613b05613494565b5b600182039050919050565b7f455243373231456e756d657261626c653a20676c6f62616c20696e646578206f60008201527f7574206f6620626f756e64730000000000000000000000000000000000000000602082015250565b6000613b6d602c83612d6d565b9150613b7882613b11565b604082019050919050565b60006020820190508181036000830152613b9c81613b60565b9050919050565b7f4552433732313a206f776e657220717565727920666f72206e6f6e657869737460008201527f656e7420746f6b656e0000000000000000000000000000000000000000000000602082015250565b6000613bff602983612d6d565b9150613c0a82613ba3565b604082019050919050565b60006020820190508181036000830152613c2e81613bf2565b9050919050565b7f4552433732313a2062616c616e636520717565727920666f7220746865207a6560008201527f726f206164647265737300000000000000000000000000000000000000000000602082015250565b6000613c91602a83612d6d565b9150613c9c82613c35565b604082019050919050565b60006020820190508181036000830152613cc081613c84565b9050919050565b7f4f776e61626c653a2063616c6c6572206973206e6f7420746865206f776e6572600082015250565b6000613cfd602083612d6d565b9150613d0882613cc7565b602082019050919050565b60006020820190508181036000830152613d2c81613cf0565b9050919050565b7f4552433732313a20617070726f766520746f2063616c6c657200000000000000600082015250565b6000613d69601983612d6d565b9150613d7482613d33565b602082019050919050565b60006020820190508181036000830152613d9881613d5c565b9050919050565b7f4552433732314d657461646174613a2055524920717565727920666f72206e6f60008201527f6e6578697374656e7420746f6b656e0000000000000000000000000000000000602082015250565b6000613dfb602f83612d6d565b9150613e0682613d9f565b604082019050919050565b60006020820190508181036000830152613e2a81613dee565b9050919050565b600081905092915050565b6000613e4782612d62565b613e518185613e31565b9350613e61818560208601612d7e565b80840191505092915050565b6000613e798285613e3c565b9150613e858284613e3c565b91508190509392505050565b7f4f776e61626c653a206e6577206f776e657220697320746865207a65726f206160008201527f6464726573730000000000000000000000000000000000000000000000000000602082015250565b6000613eed602683612d6d565b9150613ef882613e91565b604082019050919050565b60006020820190508181036000830152613f1c81613ee0565b9050919050565b7f4e487b7100000000000000000000000000000000000000000000000000000000600052601260045260246000fd5b6000613f5d82612cc5565b9150613f6883612cc5565b925082613f7857613f77613f23565b5b828204905092915050565b6000613f8e82612cc5565b9150613f9983612cc5565b9250817fffffffffffffffffffffffffffffffffffffffffffffffffffffffffffffffff0483118215151615613fd257613fd1613494565b5b828202905092915050565b6000613fe882612cc5565b9150613ff383612cc5565b92508282101561400657614005613494565b5b828203905092915050565b7f4552433732313a206f70657261746f7220717565727920666f72206e6f6e657860008201527f697374656e7420746f6b656e0000000000000000000000000000000000000000602082015250565b600061406d602c83612d6d565b915061407882614011565b604082019050919050565b6000602082019050818103600083015261409c81614060565b9050919050565b7f4552433732313a207472616e73666572206f6620746f6b656e2074686174206960008201527f73206e6f74206f776e0000000000000000000000000000000000000000000000602082015250565b60006140ff602983612d6d565b915061410a826140a3565b604082019050919050565b6000602082019050818103600083015261412e816140f2565b9050919050565b7f4552433732313a207472616e7366657220746f20746865207a65726f2061646460008201527f7265737300000000000000000000000000000000000000000000000000000000602082015250565b6000614191602483612d6d565b915061419c82614135565b604082019050919050565b600060208201905081810360008301526141c081614184565b9050919050565b6000819050919050565b6141e26141dd82612cc5565b6141c7565b82525050565b60008160601b9050919050565b6000614200826141e8565b9050919050565b6000614212826141f5565b9050919050565b61422a61422582612e6a565b614207565b82525050565b600061423c82866141d1565b60208201915061424c8285614219565b60148201915061425c82846141d1565b602082019150819050949350505050565b600061427882612cc5565b915061428383612cc5565b92508261429357614292613f23565b5b828206905092915050565b7f4552433732313a207472616e7366657220746f206e6f6e20455243373231526560008201527f63656976657220696d706c656d656e7465720000000000000000000000000000602082015250565b60006142fa603283612d6d565b91506143058261429e565b604082019050919050565b60006020820190508181036000830152614329816142ed565b9050919050565b600081519050919050565b600082825260208201905092915050565b600061435782614330565b614361818561433b565b9350614371818560208601612d7e565b61437a81612db1565b840191505092915050565b600060808201905061439a6000830187612e7c565b6143a76020830186612e7c565b6143b46040830185612ea6565b81810360608301526143c6818461434c565b905095945050505050565b6000815190506143e081612c36565b92915050565b6000602082840312156143fc576143fb612c00565b5b600061440a848285016143d1565b91505092915050565b7f4552433732313a206d696e7420746f20746865207a65726f2061646472657373600082015250565b6000614449602083612d6d565b915061445482614413565b602082019050919050565b600060208201905081810360008301526144788161443c565b9050919050565b7f4552433732313a20746f6b656e20616c7265616479206d696e74656400000000600082015250565b60006144b5601c83612d6d565b91506144c08261447f565b602082019050919050565b600060208201905081810360008301526144e4816144a8565b905091905056fea26469706673582212207765a039709c1e74a8789bf50679ee0af43f05143590d065c884e1858bc8561264736f6c63430008090033",
  "immutableReferences": {},
  "source": "pragma solidity ^0.8.9;\r\n\r\nimport \"@openzeppelin/contracts/token/ERC721/ERC721.sol\";\r\nimport \"@openzeppelin/contracts/access/Ownable.sol\";\r\nimport \"@openzeppelin/contracts/token/ERC721/extensions/ERC721Enumerable.sol\";\r\nimport \"@taha/RewardContract.sol\";\r\nimport \"@openzeppelin/contracts/utils/math/SafeMath.sol\";\r\n\r\ncontract NFT is ERC721Enumerable, Ownable {\r\n    struct Dwarf {\r\n        uint256 mining;\r\n        uint256 luck;\r\n        uint256 stamina;\r\n        uint256 mineCooldown;\r\n        uint256 lastMine;\r\n        uint256 level;\r\n        uint256 experience;\r\n        uint256 nft_type;\r\n    }\r\n    struct Item {\r\n        uint256 miningBonus;\r\n        uint256 luckBonus;\r\n        uint256 staminaBonus;\r\n        uint256 mineCooldownBonus;\r\n        uint256 durability;\r\n        uint256 nft_type;\r\n    }\r\n\r\n    uint256 maxSupply = 0;\r\n    mapping(uint256 => Item) private _itemDetails;\r\n    mapping(uint256 => Dwarf) private _dwarfDetails;\r\n    mapping(uint256 => uint256) private levels;\r\n    mapping(uint256 => uint256) private types;\r\n    uint256 levelsIndex = 0;\r\n    address rewardAdress;\r\n    uint256 lastStaminaReplenished;\r\n    uint256 staminaReplenishTime = 30;\r\n    uint256 exp = 100;\r\n    uint256 expMultiplier = 30;\r\n    uint256 randNonce = 0;\r\n    uint256 nextId = 0;\r\n\r\n    using SafeMath for uint256;\r\n\r\n    constructor(string memory name, string memory symbol) ERC721(name, symbol) {\r\n        maxSupply = 1000;\r\n        lastStaminaReplenished = block.timestamp;\r\n        _initialize();\r\n    }\r\n\r\n    function giveExperience(uint256 tokenId, uint256 amount)\r\n        public\r\n        returns (uint256)\r\n    {\r\n        _dwarfDetails[tokenId].experience += amount;\r\n        uint256 requiredExp = requiredExpForNextLevel(\r\n            _dwarfDetails[tokenId].level\r\n        );\r\n        if (_dwarfDetails[tokenId].experience >= requiredExp) {\r\n            levelUp(tokenId);\r\n        }\r\n    }\r\n\r\n    function addLevels(uint256 levelAmount) public onlyOwner {\r\n        uint256 i = 0;\r\n        for (i = 0; i < levelAmount; i++) {\r\n            if (expMultiplier > 0) {\r\n                expMultiplier = expMultiplier.sub(1);\r\n            }\r\n            exp = exp.add(((exp / 100) * expMultiplier));\r\n            uint256 a = exp;\r\n            uint256 m = 100;\r\n            exp = ((a + m - 1) / m) * m;\r\n            levels[i] = exp;\r\n            levelsIndex++;\r\n        }\r\n        exp = levels[i];\r\n    }\r\n\r\n    function addStatPoint(uint256 tokenId) public returns (uint256) {\r\n        randMod(10);\r\n        uint256 rnd = randMod(10);\r\n        if (rnd > 5) {\r\n            _dwarfDetails[tokenId].mining.add(randMod(3));\r\n            _dwarfDetails[tokenId].luck.add(randMod(2));\r\n        }\r\n        return rnd;\r\n    }\r\n\r\n    function returnLevel(uint256 levelIndex) public view returns (uint256) {\r\n        return levels[levelIndex];\r\n    }\r\n\r\n    function randMod(uint256 _modulus) internal returns (uint256) {\r\n        randNonce++;\r\n        return\r\n            uint256(\r\n                keccak256(\r\n                    abi.encodePacked(block.timestamp, msg.sender, randNonce)\r\n                )\r\n            ) % _modulus;\r\n    }\r\n\r\n    function levelUp(uint256 tokenId) public {\r\n        _dwarfDetails[tokenId].level++;\r\n        _dwarfDetails[tokenId].experience = 0;\r\n        addStatPoint(tokenId);\r\n    }\r\n\r\n    function experienceOf(uint256 tokenId) public view returns (uint256) {\r\n        return _dwarfDetails[tokenId].experience;\r\n    }\r\n\r\n    function levelOf(uint256 tokenId) public view returns (uint256) {\r\n        return _dwarfDetails[tokenId].level;\r\n    }\r\n\r\n    function requiredExpForNextLevel(uint256 nextLevelIndex)\r\n        public\r\n        view\r\n        returns (uint256)\r\n    {\r\n        return levels[nextLevelIndex];\r\n    }\r\n\r\n    function _initialize() internal {\r\n        uint256 totalNft = nextId;\r\n        uint256 i;\r\n        if (lastStaminaReplenished + staminaReplenishTime < block.timestamp) {\r\n            for (i = 0; i < totalNft; i++) {\r\n                _replenishStamina(i);\r\n            }\r\n            lastStaminaReplenished = block.timestamp;\r\n        }\r\n    }\r\n\r\n    function _replenishStamina(uint256 tokenId) internal {\r\n        _dwarfDetails[tokenId].stamina++;\r\n    }\r\n\r\n    function lastStaminaReplenishedTime() public view returns (uint256) {\r\n        return lastStaminaReplenished;\r\n    }\r\n\r\n    function getDwarfDetails(uint256 tokenId)\r\n        public\r\n        view\r\n        returns (Dwarf memory)\r\n    {\r\n        return _dwarfDetails[tokenId];\r\n    }\r\n\r\n    function getItemDetails(uint256 tokenId) public view returns (Item memory) {\r\n        return _itemDetails[tokenId];\r\n    }\r\n\r\n    function maxSupply_t() public view returns (uint256) {\r\n        return maxSupply;\r\n    }\r\n\r\n    function setRewardAdress(address _rewardAdress) external {\r\n        rewardAdress = _rewardAdress;\r\n    }\r\n    \r\n    function mintItem(\r\n        uint256 miningBonus,\r\n        uint256 luckBonus,\r\n        uint256 staminaBonus,\r\n        uint256 mineCooldownBonus\r\n    ) public {\r\n        _itemDetails[nextId] = Item(\r\n            miningBonus,\r\n            luckBonus,\r\n            staminaBonus,\r\n            mineCooldownBonus,\r\n            20,\r\n            2\r\n        );\r\n        types[nextId] = 2;\r\n        _safeMint(msg.sender, nextId);\r\n        nextId++;\r\n        _initialize();\r\n    }\r\n\r\n    function mintDwarf(\r\n        uint256 mining,\r\n        uint256 luck,\r\n        uint256 stamina,\r\n        uint256 mineCooldown\r\n    ) public {\r\n        _dwarfDetails[nextId] = Dwarf(\r\n            mining,\r\n            luck,\r\n            stamina,\r\n            mineCooldown,\r\n            block.timestamp,\r\n            0,\r\n            0,\r\n            1\r\n        );\r\n        types[nextId] = 1;\r\n        _safeMint(msg.sender, nextId);\r\n        nextId++;\r\n        _initialize();\r\n    }\r\n    function getTypeOfNft(uint256 id) public view returns(uint256){\r\n        return types[id];\r\n    }\r\n    function totalSupply_t() public view returns (uint256) {\r\n        return nextId;\r\n    }\r\n\r\n    function mine(uint256 tokenId) public returns (string memory) {\r\n        _initialize();\r\n        RewardContract rewardContract = RewardContract(rewardAdress);\r\n        uint256 reward = 1000000000000000;\r\n        address userAdress = msg.sender;\r\n        rewardContract.reward(userAdress, reward);\r\n\r\n        Dwarf storage dwarf = _dwarfDetails[tokenId];\r\n        require(ownerOf(tokenId) == msg.sender, \"you dont own this property\");\r\n        require(\r\n            dwarf.lastMine + dwarf.mineCooldown < block.timestamp,\r\n            \"on cooldown\"\r\n        );\r\n        require(dwarf.stamina > 0, \"no stamina\");\r\n        dwarf.lastMine = block.timestamp;\r\n        dwarf.stamina--;\r\n        giveExperience(tokenId, 200);\r\n        return \"Success\";\r\n    }\r\n\r\n    function getAllTokens() public view returns (uint256[] memory) {\r\n        uint256 totalNft = nextId;\r\n        uint256[] memory result = new uint256[](totalNft);\r\n        uint256 i;\r\n        uint256 resultIndex = 0;\r\n        for (i = 0; i < totalNft; i++) {\r\n            result[resultIndex] = i;\r\n            resultIndex++;\r\n        }\r\n        require(result.length > 0, \"no tokens\");\r\n        return result;\r\n    }\r\n\r\n    function getAllNftOfUser(address user)\r\n        public\r\n        view\r\n        returns (uint256[] memory)\r\n    {\r\n        uint256 tokenCount = balanceOf(user);\r\n        uint256[] memory result = new uint256[](tokenCount);\r\n        uint256 totalNft = nextId;\r\n        uint256 i;\r\n        uint256 resultIndex = 0;\r\n        for (i = 0; i < totalNft; i++) {\r\n            if (ownerOf(i) == user) {\r\n                result[resultIndex] = i;\r\n                resultIndex++;\r\n            }\r\n        }\r\n        return result;\r\n    }\r\n\r\n\r\n\r\n    function _beforeTokenTransfer(\r\n        address from,\r\n        address to,\r\n        uint256 tokenId\r\n    ) internal override {\r\n        Dwarf storage dwarf = _dwarfDetails[nextId];\r\n        // require(dwarf.lastMine + dwarf.mineCooldown > block.timestamp);\r\n        _initialize();\r\n    }\r\n}\r\n",
  "sourcePath": "C:\\Users\\win10\\Desktop\\dev\\MetaDwarfs\\contracts\\NFT.sol",
  "compiler": {
    "name": "solc",
    "version": "0.8.9+commit.e5eed63a.Emscripten.clang"
  },
  "schemaVersion": "3.4.3",
  "updatedAt": "2021-11-16T07:21:33.879Z",
  "networkType": "ethereum",
  "devdoc": {
    "kind": "dev",
    "methods": {
      "approve(address,uint256)": {
        "details": "See {IERC721-approve}."
      },
      "balanceOf(address)": {
        "details": "See {IERC721-balanceOf}."
      },
      "getApproved(uint256)": {
        "details": "See {IERC721-getApproved}."
      },
      "isApprovedForAll(address,address)": {
        "details": "See {IERC721-isApprovedForAll}."
      },
      "name()": {
        "details": "See {IERC721Metadata-name}."
      },
      "owner()": {
        "details": "Returns the address of the current owner."
      },
      "ownerOf(uint256)": {
        "details": "See {IERC721-ownerOf}."
      },
      "renounceOwnership()": {
        "details": "Leaves the contract without owner. It will not be possible to call `onlyOwner` functions anymore. Can only be called by the current owner. NOTE: Renouncing ownership will leave the contract without an owner, thereby removing any functionality that is only available to the owner."
      },
      "safeTransferFrom(address,address,uint256)": {
        "details": "See {IERC721-safeTransferFrom}."
      },
      "safeTransferFrom(address,address,uint256,bytes)": {
        "details": "See {IERC721-safeTransferFrom}."
      },
      "setApprovalForAll(address,bool)": {
        "details": "See {IERC721-setApprovalForAll}."
      },
      "supportsInterface(bytes4)": {
        "details": "See {IERC165-supportsInterface}."
      },
      "symbol()": {
        "details": "See {IERC721Metadata-symbol}."
      },
      "tokenByIndex(uint256)": {
        "details": "See {IERC721Enumerable-tokenByIndex}."
      },
      "tokenOfOwnerByIndex(address,uint256)": {
        "details": "See {IERC721Enumerable-tokenOfOwnerByIndex}."
      },
      "tokenURI(uint256)": {
        "details": "See {IERC721Metadata-tokenURI}."
      },
      "totalSupply()": {
        "details": "See {IERC721Enumerable-totalSupply}."
      },
      "transferFrom(address,address,uint256)": {
        "details": "See {IERC721-transferFrom}."
      },
      "transferOwnership(address)": {
        "details": "Transfers ownership of the contract to a new account (`newOwner`). Can only be called by the current owner."
      }
    },
    "version": 1
  },
  "userdoc": {
    "kind": "user",
    "methods": {},
    "version": 1
  }
}