{
  "contractName": "Token",
  "abi": [
    {
      "inputs": [
        {
          "internalType": "string",
          "name": "name",
          "type": "string"
        },
        {
          "internalType": "string",
          "name": "symbol",
          "type": "string"
        }
      ],
      "stateMutability": "nonpayable",
      "type": "constructor"
    },
    {
      "anonymous": false,
      "inputs": [
        {
          "indexed": true,
          "internalType": "address",
          "name": "owner",
          "type": "address"
        },
        {
          "indexed": true,
          "internalType": "address",
          "name": "approved",
          "type": "address"
        },
        {
          "indexed": true,
          "internalType": "uint256",
          "name": "tokenId",
          "type": "uint256"
        }
      ],
      "name": "Approval",
      "type": "event"
    },
    {
      "anonymous": false,
      "inputs": [
        {
          "indexed": true,
          "internalType": "address",
          "name": "owner",
          "type": "address"
        },
        {
          "indexed": true,
          "internalType": "address",
          "name": "operator",
          "type": "address"
        },
        {
          "indexed": false,
          "internalType": "bool",
          "name": "approved",
          "type": "bool"
        }
      ],
      "name": "ApprovalForAll",
      "type": "event"
    },
    {
      "anonymous": false,
      "inputs": [
        {
          "indexed": true,
          "internalType": "address",
          "name": "previousOwner",
          "type": "address"
        },
        {
          "indexed": true,
          "internalType": "address",
          "name": "newOwner",
          "type": "address"
        }
      ],
      "name": "OwnershipTransferred",
      "type": "event"
    },
    {
      "anonymous": false,
      "inputs": [
        {
          "indexed": true,
          "internalType": "address",
          "name": "from",
          "type": "address"
        },
        {
          "indexed": true,
          "internalType": "address",
          "name": "to",
          "type": "address"
        },
        {
          "indexed": true,
          "internalType": "uint256",
          "name": "tokenId",
          "type": "uint256"
        }
      ],
      "name": "Transfer",
      "type": "event"
    },
    {
      "inputs": [
        {
          "internalType": "address",
          "name": "to",
          "type": "address"
        },
        {
          "internalType": "uint256",
          "name": "tokenId",
          "type": "uint256"
        }
      ],
      "name": "approve",
      "outputs": [],
      "stateMutability": "nonpayable",
      "type": "function"
    },
    {
      "inputs": [
        {
          "internalType": "address",
          "name": "owner",
          "type": "address"
        }
      ],
      "name": "balanceOf",
      "outputs": [
        {
          "internalType": "uint256",
          "name": "",
          "type": "uint256"
        }
      ],
      "stateMutability": "view",
      "type": "function",
      "constant": true
    },
    {
      "inputs": [
        {
          "internalType": "uint256",
          "name": "tokenId",
          "type": "uint256"
        }
      ],
      "name": "getApproved",
      "outputs": [
        {
          "internalType": "address",
          "name": "",
          "type": "address"
        }
      ],
      "stateMutability": "view",
      "type": "function",
      "constant": true
    },
    {
      "inputs": [
        {
          "internalType": "address",
          "name": "owner",
          "type": "address"
        },
        {
          "internalType": "address",
          "name": "operator",
          "type": "address"
        }
      ],
      "name": "isApprovedForAll",
      "outputs": [
        {
          "internalType": "bool",
          "name": "",
          "type": "bool"
        }
      ],
      "stateMutability": "view",
      "type": "function",
      "constant": true
    },
    {
      "inputs": [],
      "name": "name",
      "outputs": [
        {
          "internalType": "string",
          "name": "",
          "type": "string"
        }
      ],
      "stateMutability": "view",
      "type": "function",
      "constant": true
    },
    {
      "inputs": [],
      "name": "owner",
      "outputs": [
        {
          "internalType": "address",
          "name": "",
          "type": "address"
        }
      ],
      "stateMutability": "view",
      "type": "function",
      "constant": true
    },
    {
      "inputs": [
        {
          "internalType": "uint256",
          "name": "tokenId",
          "type": "uint256"
        }
      ],
      "name": "ownerOf",
      "outputs": [
        {
          "internalType": "address",
          "name": "",
          "type": "address"
        }
      ],
      "stateMutability": "view",
      "type": "function",
      "constant": true
    },
    {
      "inputs": [],
      "name": "renounceOwnership",
      "outputs": [],
      "stateMutability": "nonpayable",
      "type": "function"
    },
    {
      "inputs": [
        {
          "internalType": "address",
          "name": "from",
          "type": "address"
        },
        {
          "internalType": "address",
          "name": "to",
          "type": "address"
        },
        {
          "internalType": "uint256",
          "name": "tokenId",
          "type": "uint256"
        }
      ],
      "name": "safeTransferFrom",
      "outputs": [],
      "stateMutability": "nonpayable",
      "type": "function"
    },
    {
      "inputs": [
        {
          "internalType": "address",
          "name": "from",
          "type": "address"
        },
        {
          "internalType": "address",
          "name": "to",
          "type": "address"
        },
        {
          "internalType": "uint256",
          "name": "tokenId",
          "type": "uint256"
        },
        {
          "internalType": "bytes",
          "name": "_data",
          "type": "bytes"
        }
      ],
      "name": "safeTransferFrom",
      "outputs": [],
      "stateMutability": "nonpayable",
      "type": "function"
    },
    {
      "inputs": [
        {
          "internalType": "address",
          "name": "operator",
          "type": "address"
        },
        {
          "internalType": "bool",
          "name": "approved",
          "type": "bool"
        }
      ],
      "name": "setApprovalForAll",
      "outputs": [],
      "stateMutability": "nonpayable",
      "type": "function"
    },
    {
      "inputs": [
        {
          "internalType": "bytes4",
          "name": "interfaceId",
          "type": "bytes4"
        }
      ],
      "name": "supportsInterface",
      "outputs": [
        {
          "internalType": "bool",
          "name": "",
          "type": "bool"
        }
      ],
      "stateMutability": "view",
      "type": "function",
      "constant": true
    },
    {
      "inputs": [],
      "name": "symbol",
      "outputs": [
        {
          "internalType": "string",
          "name": "",
          "type": "string"
        }
      ],
      "stateMutability": "view",
      "type": "function",
      "constant": true
    },
    {
      "inputs": [
        {
          "internalType": "uint256",
          "name": "index",
          "type": "uint256"
        }
      ],
      "name": "tokenByIndex",
      "outputs": [
        {
          "internalType": "uint256",
          "name": "",
          "type": "uint256"
        }
      ],
      "stateMutability": "view",
      "type": "function",
      "constant": true
    },
    {
      "inputs": [
        {
          "internalType": "address",
          "name": "owner",
          "type": "address"
        },
        {
          "internalType": "uint256",
          "name": "index",
          "type": "uint256"
        }
      ],
      "name": "tokenOfOwnerByIndex",
      "outputs": [
        {
          "internalType": "uint256",
          "name": "",
          "type": "uint256"
        }
      ],
      "stateMutability": "view",
      "type": "function",
      "constant": true
    },
    {
      "inputs": [
        {
          "internalType": "uint256",
          "name": "tokenId",
          "type": "uint256"
        }
      ],
      "name": "tokenURI",
      "outputs": [
        {
          "internalType": "string",
          "name": "",
          "type": "string"
        }
      ],
      "stateMutability": "view",
      "type": "function",
      "constant": true
    },
    {
      "inputs": [],
      "name": "totalSupply",
      "outputs": [
        {
          "internalType": "uint256",
          "name": "",
          "type": "uint256"
        }
      ],
      "stateMutability": "view",
      "type": "function",
      "constant": true
    },
    {
      "inputs": [
        {
          "internalType": "address",
          "name": "from",
          "type": "address"
        },
        {
          "internalType": "address",
          "name": "to",
          "type": "address"
        },
        {
          "internalType": "uint256",
          "name": "tokenId",
          "type": "uint256"
        }
      ],
      "name": "transferFrom",
      "outputs": [],
      "stateMutability": "nonpayable",
      "type": "function"
    },
    {
      "inputs": [
        {
          "internalType": "address",
          "name": "newOwner",
          "type": "address"
        }
      ],
      "name": "transferOwnership",
      "outputs": [],
      "stateMutability": "nonpayable",
      "type": "function"
    },
    {
      "inputs": [
        {
          "internalType": "uint256",
          "name": "tokenId",
          "type": "uint256"
        }
      ],
      "name": "getTokenDetails",
      "outputs": [
        {
          "components": [
            {
              "internalType": "uint256",
              "name": "mining",
              "type": "uint256"
            },
            {
              "internalType": "uint256",
              "name": "luck",
              "type": "uint256"
            },
            {
              "internalType": "uint256",
              "name": "stamina",
              "type": "uint256"
            },
            {
              "internalType": "uint256",
              "name": "mineCooldown",
              "type": "uint256"
            },
            {
              "internalType": "uint256",
              "name": "lastMine",
              "type": "uint256"
            }
          ],
          "internalType": "struct Token.Dwarf",
          "name": "",
          "type": "tuple"
        }
      ],
      "stateMutability": "view",
      "type": "function",
      "constant": true
    },
    {
      "inputs": [
        {
          "internalType": "uint256",
          "name": "mining",
          "type": "uint256"
        },
        {
          "internalType": "uint256",
          "name": "luck",
          "type": "uint256"
        },
        {
          "internalType": "uint256",
          "name": "stamina",
          "type": "uint256"
        },
        {
          "internalType": "uint256",
          "name": "mineCooldown",
          "type": "uint256"
        }
      ],
      "name": "mint",
      "outputs": [],
      "stateMutability": "nonpayable",
      "type": "function"
    },
    {
      "inputs": [],
      "name": "totalSupply_t",
      "outputs": [
        {
          "internalType": "uint256",
          "name": "",
          "type": "uint256"
        }
      ],
      "stateMutability": "view",
      "type": "function",
      "constant": true
    },
    {
      "inputs": [
        {
          "internalType": "uint256",
          "name": "tokenId",
          "type": "uint256"
        }
      ],
      "name": "mine",
      "outputs": [
        {
          "internalType": "string",
          "name": "",
          "type": "string"
        }
      ],
      "stateMutability": "nonpayable",
      "type": "function"
    },
    {
      "inputs": [
        {
          "internalType": "address",
          "name": "user",
          "type": "address"
        }
      ],
      "name": "getAllTokensOfUser",
      "outputs": [
        {
          "internalType": "uint256[]",
          "name": "",
          "type": "uint256[]"
        }
      ],
      "stateMutability": "view",
      "type": "function",
      "constant": true
    }
  ],
  "bytecode": "0x60806040526000600b553480156200001657600080fd5b5060405162003aaa38038062003aaa83398181016040528101906200003c9190620003b5565b818181600090805190602001906200005692919062000168565b5080600190805190602001906200006f92919062000168565b50505062000092620000866200009a60201b60201c565b620000a260201b60201c565b50506200049f565b600033905090565b6000600a60009054906101000a900473ffffffffffffffffffffffffffffffffffffffff16905081600a60006101000a81548173ffffffffffffffffffffffffffffffffffffffff021916908373ffffffffffffffffffffffffffffffffffffffff1602179055508173ffffffffffffffffffffffffffffffffffffffff168173ffffffffffffffffffffffffffffffffffffffff167f8be0079c531659141344cd1fd0a4f28419497f9722a3daafe3b4186f6b6457e060405160405180910390a35050565b828054620001769062000469565b90600052602060002090601f0160209004810192826200019a5760008555620001e6565b82601f10620001b557805160ff1916838001178555620001e6565b82800160010185558215620001e6579182015b82811115620001e5578251825591602001919060010190620001c8565b5b509050620001f59190620001f9565b5090565b5b8082111562000214576000816000905550600101620001fa565b5090565b6000604051905090565b600080fd5b600080fd5b600080fd5b600080fd5b6000601f19601f8301169050919050565b7f4e487b7100000000000000000000000000000000000000000000000000000000600052604160045260246000fd5b620002818262000236565b810181811067ffffffffffffffff82111715620002a357620002a262000247565b5b80604052505050565b6000620002b862000218565b9050620002c6828262000276565b919050565b600067ffffffffffffffff821115620002e957620002e862000247565b5b620002f48262000236565b9050602081019050919050565b60005b838110156200032157808201518184015260208101905062000304565b8381111562000331576000848401525b50505050565b60006200034e6200034884620002cb565b620002ac565b9050828152602081018484840111156200036d576200036c62000231565b5b6200037a84828562000301565b509392505050565b600082601f8301126200039a57620003996200022c565b5b8151620003ac84826020860162000337565b91505092915050565b60008060408385031215620003cf57620003ce62000222565b5b600083015167ffffffffffffffff811115620003f057620003ef62000227565b5b620003fe8582860162000382565b925050602083015167ffffffffffffffff81111562000422576200042162000227565b5b620004308582860162000382565b9150509250929050565b7f4e487b7100000000000000000000000000000000000000000000000000000000600052602260045260246000fd5b600060028204905060018216806200048257607f821691505b602082108114156200049957620004986200043a565b5b50919050565b6135fb80620004af6000396000f3fe608060405234801561001057600080fd5b50600436106101585760003560e01c806365675074116100c3578063a22cb4651161007c578063a22cb465146103ed578063b88d4fde14610409578063c1e0372814610425578063c87b56dd14610455578063e985e9c514610485578063f2fde38b146104b557610158565b8063656750741461032b5780636582ccd31461035b57806370a0823114610377578063715018a6146103a75780638da5cb5b146103b157806395d89b41146103cf57610158565b80632869935b116101155780632869935b146102315780632f745c591461024f57806342842e0e1461027f5780634d4748981461029b5780634f6ccce7146102cb5780636352211e146102fb57610158565b806301ffc9a71461015d57806306fdde031461018d578063081812fc146101ab578063095ea7b3146101db57806318160ddd146101f757806323b872dd14610215575b600080fd5b61017760048036038101906101729190612090565b6104d1565b60405161018491906120d8565b60405180910390f35b61019561054b565b6040516101a2919061218c565b60405180910390f35b6101c560048036038101906101c091906121e4565b6105dd565b6040516101d29190612252565b60405180910390f35b6101f560048036038101906101f09190612299565b610662565b005b6101ff61077a565b60405161020c91906122e8565b60405180910390f35b61022f600480360381019061022a9190612303565b610787565b005b6102396107e7565b60405161024691906122e8565b60405180910390f35b61026960048036038101906102649190612299565b6107f1565b60405161027691906122e8565b60405180910390f35b61029960048036038101906102949190612303565b610896565b005b6102b560048036038101906102b091906121e4565b6108b6565b6040516102c2919061218c565b60405180910390f35b6102e560048036038101906102e091906121e4565b6109cc565b6040516102f291906122e8565b60405180910390f35b610315600480360381019061031091906121e4565b610a3d565b6040516103229190612252565b60405180910390f35b61034560048036038101906103409190612356565b610aef565b6040516103529190612441565b60405180910390f35b61037560048036038101906103709190612463565b610bf1565b005b610391600480360381019061038c9190612356565b610d08565b60405161039e91906122e8565b60405180910390f35b6103af610dc0565b005b6103b9610e48565b6040516103c69190612252565b60405180910390f35b6103d7610e72565b6040516103e4919061218c565b60405180910390f35b610407600480360381019061040291906124f6565b610f04565b005b610423600480360381019061041e919061266b565b611085565b005b61043f600480360381019061043a91906121e4565b6110e7565b60405161044c9190612756565b60405180910390f35b61046f600480360381019061046a91906121e4565b611146565b60405161047c919061218c565b60405180910390f35b61049f600480360381019061049a9190612771565b6111ed565b6040516104ac91906120d8565b60405180910390f35b6104cf60048036038101906104ca9190612356565b611281565b005b60007f780e9d63000000000000000000000000000000000000000000000000000000007bffffffffffffffffffffffffffffffffffffffffffffffffffffffff1916827bffffffffffffffffffffffffffffffffffffffffffffffffffffffff19161480610544575061054382611379565b5b9050919050565b60606000805461055a906127e0565b80601f0160208091040260200160405190810160405280929190818152602001828054610586906127e0565b80156105d35780601f106105a8576101008083540402835291602001916105d3565b820191906000526020600020905b8154815290600101906020018083116105b657829003601f168201915b5050505050905090565b60006105e88261145b565b610627576040517f08c379a000000000000000000000000000000000000000000000000000000000815260040161061e90612884565b60405180910390fd5b6004600083815260200190815260200160002060009054906101000a900473ffffffffffffffffffffffffffffffffffffffff169050919050565b600061066d82610a3d565b90508073ffffffffffffffffffffffffffffffffffffffff168373ffffffffffffffffffffffffffffffffffffffff1614156106de576040517f08c379a00000000000000000000000000000000000000000000000000000000081526004016106d590612916565b60405180910390fd5b8073ffffffffffffffffffffffffffffffffffffffff166106fd6114c7565b73ffffffffffffffffffffffffffffffffffffffff16148061072c575061072b816107266114c7565b6111ed565b5b61076b576040517f08c379a0000000000000000000000000000000000000000000000000000000008152600401610762906129a8565b60405180910390fd5b61077583836114cf565b505050565b6000600880549050905090565b6107986107926114c7565b82611588565b6107d7576040517f08c379a00000000000000000000000000000000000000000000000000000000081526004016107ce90612a3a565b60405180910390fd5b6107e2838383611666565b505050565b6000600b54905090565b60006107fc83610d08565b821061083d576040517f08c379a000000000000000000000000000000000000000000000000000000000815260040161083490612acc565b60405180910390fd5b600660008473ffffffffffffffffffffffffffffffffffffffff1673ffffffffffffffffffffffffffffffffffffffff168152602001908152602001600020600083815260200190815260200160002054905092915050565b6108b183838360405180602001604052806000815250611085565b505050565b60606000600c6000848152602001908152602001600020905042816003015482600401546108e49190612b1b565b10610924576040517f08c379a000000000000000000000000000000000000000000000000000000000815260040161091b90612bbd565b60405180910390fd5b600081600201541161096b576040517f08c379a000000000000000000000000000000000000000000000000000000000815260040161096290612c29565b60405180910390fd5b42816004018190555080600201600081548092919061098990612c49565b91905055506040518060400160405280600f81526020017f4d696e65205375636365737366756c0000000000000000000000000000000000815250915050919050565b60006109d661077a565b8210610a17576040517f08c379a0000000000000000000000000000000000000000000000000000000008152600401610a0e90612ce5565b60405180910390fd5b60088281548110610a2b57610a2a612d05565b5b90600052602060002001549050919050565b6000806002600084815260200190815260200160002060009054906101000a900473ffffffffffffffffffffffffffffffffffffffff169050600073ffffffffffffffffffffffffffffffffffffffff168173ffffffffffffffffffffffffffffffffffffffff161415610ae6576040517f08c379a0000000000000000000000000000000000000000000000000000000008152600401610add90612da6565b60405180910390fd5b80915050919050565b60606000610afc83610d08565b905060008167ffffffffffffffff811115610b1a57610b19612540565b5b604051908082528060200260200182016040528015610b485781602001602082028036833780820191505090505b5090506000600b54905060008060009050600091505b82821015610be4578673ffffffffffffffffffffffffffffffffffffffff16610b8683610a3d565b73ffffffffffffffffffffffffffffffffffffffff161415610bd15781848281518110610bb657610bb5612d05565b5b6020026020010181815250508080610bcd90612dc6565b9150505b8180610bdc90612dc6565b925050610b5e565b8395505050505050919050565b610bf96114c7565b73ffffffffffffffffffffffffffffffffffffffff16610c17610e48565b73ffffffffffffffffffffffffffffffffffffffff1614610c6d576040517f08c379a0000000000000000000000000000000000000000000000000000000008152600401610c6490612e5b565b60405180910390fd5b6040518060a0016040528085815260200184815260200183815260200182815260200142815250600c6000600b5481526020019081526020016000206000820151816000015560208201518160010155604082015181600201556060820151816003015560808201518160040155905050610cea33600b546118c2565b600b6000815480929190610cfd90612dc6565b919050555050505050565b60008073ffffffffffffffffffffffffffffffffffffffff168273ffffffffffffffffffffffffffffffffffffffff161415610d79576040517f08c379a0000000000000000000000000000000000000000000000000000000008152600401610d7090612eed565b60405180910390fd5b600360008373ffffffffffffffffffffffffffffffffffffffff1673ffffffffffffffffffffffffffffffffffffffff168152602001908152602001600020549050919050565b610dc86114c7565b73ffffffffffffffffffffffffffffffffffffffff16610de6610e48565b73ffffffffffffffffffffffffffffffffffffffff1614610e3c576040517f08c379a0000000000000000000000000000000000000000000000000000000008152600401610e3390612e5b565b60405180910390fd5b610e4660006118e0565b565b6000600a60009054906101000a900473ffffffffffffffffffffffffffffffffffffffff16905090565b606060018054610e81906127e0565b80601f0160208091040260200160405190810160405280929190818152602001828054610ead906127e0565b8015610efa5780601f10610ecf57610100808354040283529160200191610efa565b820191906000526020600020905b815481529060010190602001808311610edd57829003601f168201915b5050505050905090565b610f0c6114c7565b73ffffffffffffffffffffffffffffffffffffffff168273ffffffffffffffffffffffffffffffffffffffff161415610f7a576040517f08c379a0000000000000000000000000000000000000000000000000000000008152600401610f7190612f59565b60405180910390fd5b8060056000610f876114c7565b73ffffffffffffffffffffffffffffffffffffffff1673ffffffffffffffffffffffffffffffffffffffff16815260200190815260200160002060008473ffffffffffffffffffffffffffffffffffffffff1673ffffffffffffffffffffffffffffffffffffffff16815260200190815260200160002060006101000a81548160ff0219169083151502179055508173ffffffffffffffffffffffffffffffffffffffff166110346114c7565b73ffffffffffffffffffffffffffffffffffffffff167f17307eab39ab6107e8899845ad3d59bd9653f200f220920489ca2b5937696c318360405161107991906120d8565b60405180910390a35050565b6110966110906114c7565b83611588565b6110d5576040517f08c379a00000000000000000000000000000000000000000000000000000000081526004016110cc90612a3a565b60405180910390fd5b6110e1848484846119a6565b50505050565b6110ef611ff5565b600c60008381526020019081526020016000206040518060a0016040529081600082015481526020016001820154815260200160028201548152602001600382015481526020016004820154815250509050919050565b60606111518261145b565b611190576040517f08c379a000000000000000000000000000000000000000000000000000000000815260040161118790612feb565b60405180910390fd5b600061119a611a02565b905060008151116111ba57604051806020016040528060008152506111e5565b806111c484611a19565b6040516020016111d5929190613047565b6040516020818303038152906040525b915050919050565b6000600560008473ffffffffffffffffffffffffffffffffffffffff1673ffffffffffffffffffffffffffffffffffffffff16815260200190815260200160002060008373ffffffffffffffffffffffffffffffffffffffff1673ffffffffffffffffffffffffffffffffffffffff16815260200190815260200160002060009054906101000a900460ff16905092915050565b6112896114c7565b73ffffffffffffffffffffffffffffffffffffffff166112a7610e48565b73ffffffffffffffffffffffffffffffffffffffff16146112fd576040517f08c379a00000000000000000000000000000000000000000000000000000000081526004016112f490612e5b565b60405180910390fd5b600073ffffffffffffffffffffffffffffffffffffffff168173ffffffffffffffffffffffffffffffffffffffff16141561136d576040517f08c379a0000000000000000000000000000000000000000000000000000000008152600401611364906130dd565b60405180910390fd5b611376816118e0565b50565b60007f80ac58cd000000000000000000000000000000000000000000000000000000007bffffffffffffffffffffffffffffffffffffffffffffffffffffffff1916827bffffffffffffffffffffffffffffffffffffffffffffffffffffffff1916148061144457507f5b5e139f000000000000000000000000000000000000000000000000000000007bffffffffffffffffffffffffffffffffffffffffffffffffffffffff1916827bffffffffffffffffffffffffffffffffffffffffffffffffffffffff1916145b80611454575061145382611b7a565b5b9050919050565b60008073ffffffffffffffffffffffffffffffffffffffff166002600084815260200190815260200160002060009054906101000a900473ffffffffffffffffffffffffffffffffffffffff1673ffffffffffffffffffffffffffffffffffffffff1614159050919050565b600033905090565b816004600083815260200190815260200160002060006101000a81548173ffffffffffffffffffffffffffffffffffffffff021916908373ffffffffffffffffffffffffffffffffffffffff160217905550808273ffffffffffffffffffffffffffffffffffffffff1661154283610a3d565b73ffffffffffffffffffffffffffffffffffffffff167f8c5be1e5ebec7d5bd14f71427d1e84f3dd0314c0f7b2291e5b200ac8c7c3b92560405160405180910390a45050565b60006115938261145b565b6115d2576040517f08c379a00000000000000000000000000000000000000000000000000000000081526004016115c99061316f565b60405180910390fd5b60006115dd83610a3d565b90508073ffffffffffffffffffffffffffffffffffffffff168473ffffffffffffffffffffffffffffffffffffffff16148061164c57508373ffffffffffffffffffffffffffffffffffffffff16611634846105dd565b73ffffffffffffffffffffffffffffffffffffffff16145b8061165d575061165c81856111ed565b5b91505092915050565b8273ffffffffffffffffffffffffffffffffffffffff1661168682610a3d565b73ffffffffffffffffffffffffffffffffffffffff16146116dc576040517f08c379a00000000000000000000000000000000000000000000000000000000081526004016116d390613201565b60405180910390fd5b600073ffffffffffffffffffffffffffffffffffffffff168273ffffffffffffffffffffffffffffffffffffffff16141561174c576040517f08c379a000000000000000000000000000000000000000000000000000000000815260040161174390613293565b60405180910390fd5b611757838383611be4565b6117626000826114cf565b6001600360008573ffffffffffffffffffffffffffffffffffffffff1673ffffffffffffffffffffffffffffffffffffffff16815260200190815260200160002060008282546117b291906132b3565b925050819055506001600360008473ffffffffffffffffffffffffffffffffffffffff1673ffffffffffffffffffffffffffffffffffffffff16815260200190815260200160002060008282546118099190612b1b565b92505081905550816002600083815260200190815260200160002060006101000a81548173ffffffffffffffffffffffffffffffffffffffff021916908373ffffffffffffffffffffffffffffffffffffffff160217905550808273ffffffffffffffffffffffffffffffffffffffff168473ffffffffffffffffffffffffffffffffffffffff167fddf252ad1be2c89b69c2b068fc378daa952ba7f163c4a11628f55a4df523b3ef60405160405180910390a4505050565b6118dc828260405180602001604052806000815250611c22565b5050565b6000600a60009054906101000a900473ffffffffffffffffffffffffffffffffffffffff16905081600a60006101000a81548173ffffffffffffffffffffffffffffffffffffffff021916908373ffffffffffffffffffffffffffffffffffffffff1602179055508173ffffffffffffffffffffffffffffffffffffffff168173ffffffffffffffffffffffffffffffffffffffff167f8be0079c531659141344cd1fd0a4f28419497f9722a3daafe3b4186f6b6457e060405160405180910390a35050565b6119b1848484611666565b6119bd84848484611c7d565b6119fc576040517f08c379a00000000000000000000000000000000000000000000000000000000081526004016119f390613359565b60405180910390fd5b50505050565b606060405180602001604052806000815250905090565b60606000821415611a61576040518060400160405280600181526020017f30000000000000000000000000000000000000000000000000000000000000008152509050611b75565b600082905060005b60008214611a93578080611a7c90612dc6565b915050600a82611a8c91906133a8565b9150611a69565b60008167ffffffffffffffff811115611aaf57611aae612540565b5b6040519080825280601f01601f191660200182016040528015611ae15781602001600182028036833780820191505090505b5090505b60008514611b6e57600182611afa91906132b3565b9150600a85611b0991906133d9565b6030611b159190612b1b565b60f81b818381518110611b2b57611b2a612d05565b5b60200101907effffffffffffffffffffffffffffffffffffffffffffffffffffffffffffff1916908160001a905350600a85611b6791906133a8565b9450611ae5565b8093505050505b919050565b60007f01ffc9a7000000000000000000000000000000000000000000000000000000007bffffffffffffffffffffffffffffffffffffffffffffffffffffffff1916827bffffffffffffffffffffffffffffffffffffffffffffffffffffffff1916149050919050565b6000600c6000600b54815260200190815260200160002090504281600301548260040154611c129190612b1b565b11611c1c57600080fd5b50505050565b611c2c8383611e14565b611c396000848484611c7d565b611c78576040517f08c379a0000000000000000000000000000000000000000000000000000000008152600401611c6f90613359565b60405180910390fd5b505050565b6000611c9e8473ffffffffffffffffffffffffffffffffffffffff16611fe2565b15611e07578373ffffffffffffffffffffffffffffffffffffffff1663150b7a02611cc76114c7565b8786866040518563ffffffff1660e01b8152600401611ce9949392919061345f565b602060405180830381600087803b158015611d0357600080fd5b505af1925050508015611d3457506040513d601f19601f82011682018060405250810190611d3191906134c0565b60015b611db7573d8060008114611d64576040519150601f19603f3d011682016040523d82523d6000602084013e611d69565b606091505b50600081511415611daf576040517f08c379a0000000000000000000000000000000000000000000000000000000008152600401611da690613359565b60405180910390fd5b805181602001fd5b63150b7a0260e01b7bffffffffffffffffffffffffffffffffffffffffffffffffffffffff1916817bffffffffffffffffffffffffffffffffffffffffffffffffffffffff191614915050611e0c565b600190505b949350505050565b600073ffffffffffffffffffffffffffffffffffffffff168273ffffffffffffffffffffffffffffffffffffffff161415611e84576040517f08c379a0000000000000000000000000000000000000000000000000000000008152600401611e7b90613539565b60405180910390fd5b611e8d8161145b565b15611ecd576040517f08c379a0000000000000000000000000000000000000000000000000000000008152600401611ec4906135a5565b60405180910390fd5b611ed960008383611be4565b6001600360008473ffffffffffffffffffffffffffffffffffffffff1673ffffffffffffffffffffffffffffffffffffffff1681526020019081526020016000206000828254611f299190612b1b565b92505081905550816002600083815260200190815260200160002060006101000a81548173ffffffffffffffffffffffffffffffffffffffff021916908373ffffffffffffffffffffffffffffffffffffffff160217905550808273ffffffffffffffffffffffffffffffffffffffff16600073ffffffffffffffffffffffffffffffffffffffff167fddf252ad1be2c89b69c2b068fc378daa952ba7f163c4a11628f55a4df523b3ef60405160405180910390a45050565b600080823b905060008111915050919050565b6040518060a0016040528060008152602001600081526020016000815260200160008152602001600081525090565b6000604051905090565b600080fd5b600080fd5b60007fffffffff0000000000000000000000000000000000000000000000000000000082169050919050565b61206d81612038565b811461207857600080fd5b50565b60008135905061208a81612064565b92915050565b6000602082840312156120a6576120a561202e565b5b60006120b48482850161207b565b91505092915050565b60008115159050919050565b6120d2816120bd565b82525050565b60006020820190506120ed60008301846120c9565b92915050565b600081519050919050565b600082825260208201905092915050565b60005b8381101561212d578082015181840152602081019050612112565b8381111561213c576000848401525b50505050565b6000601f19601f8301169050919050565b600061215e826120f3565b61216881856120fe565b935061217881856020860161210f565b61218181612142565b840191505092915050565b600060208201905081810360008301526121a68184612153565b905092915050565b6000819050919050565b6121c1816121ae565b81146121cc57600080fd5b50565b6000813590506121de816121b8565b92915050565b6000602082840312156121fa576121f961202e565b5b6000612208848285016121cf565b91505092915050565b600073ffffffffffffffffffffffffffffffffffffffff82169050919050565b600061223c82612211565b9050919050565b61224c81612231565b82525050565b60006020820190506122676000830184612243565b92915050565b61227681612231565b811461228157600080fd5b50565b6000813590506122938161226d565b92915050565b600080604083850312156122b0576122af61202e565b5b60006122be85828601612284565b92505060206122cf858286016121cf565b9150509250929050565b6122e2816121ae565b82525050565b60006020820190506122fd60008301846122d9565b92915050565b60008060006060848603121561231c5761231b61202e565b5b600061232a86828701612284565b935050602061233b86828701612284565b925050604061234c868287016121cf565b9150509250925092565b60006020828403121561236c5761236b61202e565b5b600061237a84828501612284565b91505092915050565b600081519050919050565b600082825260208201905092915050565b6000819050602082019050919050565b6123b8816121ae565b82525050565b60006123ca83836123af565b60208301905092915050565b6000602082019050919050565b60006123ee82612383565b6123f8818561238e565b93506124038361239f565b8060005b8381101561243457815161241b88826123be565b9750612426836123d6565b925050600181019050612407565b5085935050505092915050565b6000602082019050818103600083015261245b81846123e3565b905092915050565b6000806000806080858703121561247d5761247c61202e565b5b600061248b878288016121cf565b945050602061249c878288016121cf565b93505060406124ad878288016121cf565b92505060606124be878288016121cf565b91505092959194509250565b6124d3816120bd565b81146124de57600080fd5b50565b6000813590506124f0816124ca565b92915050565b6000806040838503121561250d5761250c61202e565b5b600061251b85828601612284565b925050602061252c858286016124e1565b9150509250929050565b600080fd5b600080fd5b7f4e487b7100000000000000000000000000000000000000000000000000000000600052604160045260246000fd5b61257882612142565b810181811067ffffffffffffffff8211171561259757612596612540565b5b80604052505050565b60006125aa612024565b90506125b6828261256f565b919050565b600067ffffffffffffffff8211156125d6576125d5612540565b5b6125df82612142565b9050602081019050919050565b82818337600083830152505050565b600061260e612609846125bb565b6125a0565b90508281526020810184848401111561262a5761262961253b565b5b6126358482856125ec565b509392505050565b600082601f83011261265257612651612536565b5b81356126628482602086016125fb565b91505092915050565b600080600080608085870312156126855761268461202e565b5b600061269387828801612284565b94505060206126a487828801612284565b93505060406126b5878288016121cf565b925050606085013567ffffffffffffffff8111156126d6576126d5612033565b5b6126e28782880161263d565b91505092959194509250565b60a08201600082015161270460008501826123af565b50602082015161271760208501826123af565b50604082015161272a60408501826123af565b50606082015161273d60608501826123af565b50608082015161275060808501826123af565b50505050565b600060a08201905061276b60008301846126ee565b92915050565b600080604083850312156127885761278761202e565b5b600061279685828601612284565b92505060206127a785828601612284565b9150509250929050565b7f4e487b7100000000000000000000000000000000000000000000000000000000600052602260045260246000fd5b600060028204905060018216806127f857607f821691505b6020821081141561280c5761280b6127b1565b5b50919050565b7f4552433732313a20617070726f76656420717565727920666f72206e6f6e657860008201527f697374656e7420746f6b656e0000000000000000000000000000000000000000602082015250565b600061286e602c836120fe565b915061287982612812565b604082019050919050565b6000602082019050818103600083015261289d81612861565b9050919050565b7f4552433732313a20617070726f76616c20746f2063757272656e74206f776e6560008201527f7200000000000000000000000000000000000000000000000000000000000000602082015250565b60006129006021836120fe565b915061290b826128a4565b604082019050919050565b6000602082019050818103600083015261292f816128f3565b9050919050565b7f4552433732313a20617070726f76652063616c6c6572206973206e6f74206f7760008201527f6e6572206e6f7220617070726f76656420666f7220616c6c0000000000000000602082015250565b60006129926038836120fe565b915061299d82612936565b604082019050919050565b600060208201905081810360008301526129c181612985565b9050919050565b7f4552433732313a207472616e736665722063616c6c6572206973206e6f74206f60008201527f776e6572206e6f7220617070726f766564000000000000000000000000000000602082015250565b6000612a246031836120fe565b9150612a2f826129c8565b604082019050919050565b60006020820190508181036000830152612a5381612a17565b9050919050565b7f455243373231456e756d657261626c653a206f776e657220696e646578206f7560008201527f74206f6620626f756e6473000000000000000000000000000000000000000000602082015250565b6000612ab6602b836120fe565b9150612ac182612a5a565b604082019050919050565b60006020820190508181036000830152612ae581612aa9565b9050919050565b7f4e487b7100000000000000000000000000000000000000000000000000000000600052601160045260246000fd5b6000612b26826121ae565b9150612b31836121ae565b9250827fffffffffffffffffffffffffffffffffffffffffffffffffffffffffffffffff03821115612b6657612b65612aec565b5b828201905092915050565b7f6f6e20636f6f6c646f776e000000000000000000000000000000000000000000600082015250565b6000612ba7600b836120fe565b9150612bb282612b71565b602082019050919050565b60006020820190508181036000830152612bd681612b9a565b9050919050565b7f6e6f207374616d696e6100000000000000000000000000000000000000000000600082015250565b6000612c13600a836120fe565b9150612c1e82612bdd565b602082019050919050565b60006020820190508181036000830152612c4281612c06565b9050919050565b6000612c54826121ae565b91506000821415612c6857612c67612aec565b5b600182039050919050565b7f455243373231456e756d657261626c653a20676c6f62616c20696e646578206f60008201527f7574206f6620626f756e64730000000000000000000000000000000000000000602082015250565b6000612ccf602c836120fe565b9150612cda82612c73565b604082019050919050565b60006020820190508181036000830152612cfe81612cc2565b9050919050565b7f4e487b7100000000000000000000000000000000000000000000000000000000600052603260045260246000fd5b7f4552433732313a206f776e657220717565727920666f72206e6f6e657869737460008201527f656e7420746f6b656e0000000000000000000000000000000000000000000000602082015250565b6000612d906029836120fe565b9150612d9b82612d34565b604082019050919050565b60006020820190508181036000830152612dbf81612d83565b9050919050565b6000612dd1826121ae565b91507fffffffffffffffffffffffffffffffffffffffffffffffffffffffffffffffff821415612e0457612e03612aec565b5b600182019050919050565b7f4f776e61626c653a2063616c6c6572206973206e6f7420746865206f776e6572600082015250565b6000612e456020836120fe565b9150612e5082612e0f565b602082019050919050565b60006020820190508181036000830152612e7481612e38565b9050919050565b7f4552433732313a2062616c616e636520717565727920666f7220746865207a6560008201527f726f206164647265737300000000000000000000000000000000000000000000602082015250565b6000612ed7602a836120fe565b9150612ee282612e7b565b604082019050919050565b60006020820190508181036000830152612f0681612eca565b9050919050565b7f4552433732313a20617070726f766520746f2063616c6c657200000000000000600082015250565b6000612f436019836120fe565b9150612f4e82612f0d565b602082019050919050565b60006020820190508181036000830152612f7281612f36565b9050919050565b7f4552433732314d657461646174613a2055524920717565727920666f72206e6f60008201527f6e6578697374656e7420746f6b656e0000000000000000000000000000000000602082015250565b6000612fd5602f836120fe565b9150612fe082612f79565b604082019050919050565b6000602082019050818103600083015261300481612fc8565b9050919050565b600081905092915050565b6000613021826120f3565b61302b818561300b565b935061303b81856020860161210f565b80840191505092915050565b60006130538285613016565b915061305f8284613016565b91508190509392505050565b7f4f776e61626c653a206e6577206f776e657220697320746865207a65726f206160008201527f6464726573730000000000000000000000000000000000000000000000000000602082015250565b60006130c76026836120fe565b91506130d28261306b565b604082019050919050565b600060208201905081810360008301526130f6816130ba565b9050919050565b7f4552433732313a206f70657261746f7220717565727920666f72206e6f6e657860008201527f697374656e7420746f6b656e0000000000000000000000000000000000000000602082015250565b6000613159602c836120fe565b9150613164826130fd565b604082019050919050565b600060208201905081810360008301526131888161314c565b9050919050565b7f4552433732313a207472616e73666572206f6620746f6b656e2074686174206960008201527f73206e6f74206f776e0000000000000000000000000000000000000000000000602082015250565b60006131eb6029836120fe565b91506131f68261318f565b604082019050919050565b6000602082019050818103600083015261321a816131de565b9050919050565b7f4552433732313a207472616e7366657220746f20746865207a65726f2061646460008201527f7265737300000000000000000000000000000000000000000000000000000000602082015250565b600061327d6024836120fe565b915061328882613221565b604082019050919050565b600060208201905081810360008301526132ac81613270565b9050919050565b60006132be826121ae565b91506132c9836121ae565b9250828210156132dc576132db612aec565b5b828203905092915050565b7f4552433732313a207472616e7366657220746f206e6f6e20455243373231526560008201527f63656976657220696d706c656d656e7465720000000000000000000000000000602082015250565b60006133436032836120fe565b915061334e826132e7565b604082019050919050565b6000602082019050818103600083015261337281613336565b9050919050565b7f4e487b7100000000000000000000000000000000000000000000000000000000600052601260045260246000fd5b60006133b3826121ae565b91506133be836121ae565b9250826133ce576133cd613379565b5b828204905092915050565b60006133e4826121ae565b91506133ef836121ae565b9250826133ff576133fe613379565b5b828206905092915050565b600081519050919050565b600082825260208201905092915050565b60006134318261340a565b61343b8185613415565b935061344b81856020860161210f565b61345481612142565b840191505092915050565b60006080820190506134746000830187612243565b6134816020830186612243565b61348e60408301856122d9565b81810360608301526134a08184613426565b905095945050505050565b6000815190506134ba81612064565b92915050565b6000602082840312156134d6576134d561202e565b5b60006134e4848285016134ab565b91505092915050565b7f4552433732313a206d696e7420746f20746865207a65726f2061646472657373600082015250565b60006135236020836120fe565b915061352e826134ed565b602082019050919050565b6000602082019050818103600083015261355281613516565b9050919050565b7f4552433732313a20746f6b656e20616c7265616479206d696e74656400000000600082015250565b600061358f601c836120fe565b915061359a82613559565b602082019050919050565b600060208201905081810360008301526135be81613582565b905091905056fea264697066735822122062ce80ebcea3f9e15c8621df33567827a81c399489dc39e0bf2ad5dccab7bfd564736f6c63430008090033",
  "immutableReferences": {},
  "source": "pragma solidity 0.8.9;\r\n\r\nimport \"@openzeppelin/contracts/token/ERC721/ERC721.sol\";\r\nimport \"@openzeppelin/contracts/access/Ownable.sol\";\r\nimport \"@openzeppelin/contracts/token/ERC721/extensions/ERC721Enumerable.sol\";\r\n\r\ncontract Token is ERC721Enumerable, Ownable {\r\n    struct Dwarf {\r\n        uint256 mining;\r\n        uint256 luck;\r\n        uint256 stamina;\r\n        uint256 mineCooldown;\r\n        uint256 lastMine;\r\n    }\r\n    uint256 nextId = 0;\r\n    mapping(uint256 => Dwarf) private _tokenDetails;\r\n\r\n    constructor(string memory name, string memory symbol)\r\n        ERC721(name, symbol)\r\n    {}\r\n\r\n    function getTokenDetails(uint256 tokenId)\r\n        public\r\n        view\r\n        returns (Dwarf memory)\r\n    {\r\n        return _tokenDetails[tokenId];\r\n    }\r\n\r\n \r\n   function mint(uint256 mining, uint256 luck, uint256 stamina, uint256 mineCooldown) public onlyOwner {\r\n        _tokenDetails[nextId] = Dwarf(mining, luck, stamina, mineCooldown, block.timestamp);\r\n        _safeMint(msg.sender, nextId);\r\n        nextId++;\r\n\r\n    }\r\n    function totalSupply_t() public view returns (uint256) {\r\n        return nextId;\r\n    }\r\n\r\n    function mine(uint256 tokenId) public returns(string memory) {\r\n        Dwarf storage dwarf = _tokenDetails[tokenId];\r\n        require(dwarf.lastMine + dwarf.mineCooldown < block.timestamp, 'on cooldown');\r\n        require(dwarf.stamina > 0, \"no stamina\");\r\n        dwarf.lastMine = block.timestamp;\r\n        dwarf.stamina --;\r\n\r\n        \r\n        return \"Mine Successful\";\r\n\r\n    }\r\n\r\n    function getAllTokensOfUser(address user)\r\n        public\r\n        view\r\n        returns (uint256[] memory)\r\n    {\r\n        uint256 tokenCount = balanceOf(user);\r\n        uint[] memory result = new uint256[](tokenCount);\r\n        uint256 totalNft = nextId;\r\n        uint256 i;\r\n        uint256 resultIndex = 0;\r\n        for(i = 0; i< totalNft; i++ ){\r\n            if(ownerOf(i) == user){\r\n                result[resultIndex] = i;\r\n                resultIndex++;\r\n            }\r\n        }\r\n        return result;\r\n    }\r\n\r\n    function _beforeTokenTransfer(\r\n        address from,\r\n        address to,\r\n        uint256 tokenId\r\n    ) internal override {\r\n        Dwarf storage dwarf = _tokenDetails[nextId];\r\n        require(dwarf.lastMine + dwarf.mineCooldown > block.timestamp);\r\n    }\r\n}\r\n",
  "sourcePath": "C:\\Users\\win10\\Desktop\\dev\\MetaDwarfs\\contracts\\Token.sol",
  "compiler": {
    "name": "solc",
    "version": "0.8.9+commit.e5eed63a.Emscripten.clang"
  },
  "schemaVersion": "3.4.3",
  "updatedAt": "2021-11-06T06:09:53.852Z",
  "networkType": "ethereum",
  "devdoc": {
    "kind": "dev",
    "methods": {
      "approve(address,uint256)": {
        "details": "See {IERC721-approve}."
      },
      "balanceOf(address)": {
        "details": "See {IERC721-balanceOf}."
      },
      "getApproved(uint256)": {
        "details": "See {IERC721-getApproved}."
      },
      "isApprovedForAll(address,address)": {
        "details": "See {IERC721-isApprovedForAll}."
      },
      "name()": {
        "details": "See {IERC721Metadata-name}."
      },
      "owner()": {
        "details": "Returns the address of the current owner."
      },
      "ownerOf(uint256)": {
        "details": "See {IERC721-ownerOf}."
      },
      "renounceOwnership()": {
        "details": "Leaves the contract without owner. It will not be possible to call `onlyOwner` functions anymore. Can only be called by the current owner. NOTE: Renouncing ownership will leave the contract without an owner, thereby removing any functionality that is only available to the owner."
      },
      "safeTransferFrom(address,address,uint256)": {
        "details": "See {IERC721-safeTransferFrom}."
      },
      "safeTransferFrom(address,address,uint256,bytes)": {
        "details": "See {IERC721-safeTransferFrom}."
      },
      "setApprovalForAll(address,bool)": {
        "details": "See {IERC721-setApprovalForAll}."
      },
      "supportsInterface(bytes4)": {
        "details": "See {IERC165-supportsInterface}."
      },
      "symbol()": {
        "details": "See {IERC721Metadata-symbol}."
      },
      "tokenByIndex(uint256)": {
        "details": "See {IERC721Enumerable-tokenByIndex}."
      },
      "tokenOfOwnerByIndex(address,uint256)": {
        "details": "See {IERC721Enumerable-tokenOfOwnerByIndex}."
      },
      "tokenURI(uint256)": {
        "details": "See {IERC721Metadata-tokenURI}."
      },
      "totalSupply()": {
        "details": "See {IERC721Enumerable-totalSupply}."
      },
      "transferFrom(address,address,uint256)": {
        "details": "See {IERC721-transferFrom}."
      },
      "transferOwnership(address)": {
        "details": "Transfers ownership of the contract to a new account (`newOwner`). Can only be called by the current owner."
      }
    },
    "version": 1
  },
  "userdoc": {
    "kind": "user",
    "methods": {},
    "version": 1
  }
}